{"contracts/PlatformToken.sol":{"PlatformToken":{"abi":[{"inputs":[],"stateMutability":"nonpayable","type":"constructor"},{"inputs":[{"internalType":"address","name":"spender","type":"address"},{"internalType":"uint256","name":"allowance","type":"uint256"},{"internalType":"uint256","name":"needed","type":"uint256"}],"name":"ERC20InsufficientAllowance","type":"error"},{"inputs":[{"internalType":"address","name":"sender","type":"address"},{"internalType":"uint256","name":"balance","type":"uint256"},{"internalType":"uint256","name":"needed","type":"uint256"}],"name":"ERC20InsufficientBalance","type":"error"},{"inputs":[{"internalType":"address","name":"approver","type":"address"}],"name":"ERC20InvalidApprover","type":"error"},{"inputs":[{"internalType":"address","name":"receiver","type":"address"}],"name":"ERC20InvalidReceiver","type":"error"},{"inputs":[{"internalType":"address","name":"sender","type":"address"}],"name":"ERC20InvalidSender","type":"error"},{"inputs":[{"internalType":"address","name":"spender","type":"address"}],"name":"ERC20InvalidSpender","type":"error"},{"inputs":[],"name":"EnforcedPause","type":"error"},{"inputs":[],"name":"ExpectedPause","type":"error"},{"inputs":[{"internalType":"address","name":"owner","type":"address"}],"name":"OwnableInvalidOwner","type":"error"},{"inputs":[{"internalType":"address","name":"account","type":"address"}],"name":"OwnableUnauthorizedAccount","type":"error"},{"anonymous":false,"inputs":[{"indexed":true,"internalType":"address","name":"owner","type":"address"},{"indexed":true,"internalType":"address","name":"spender","type":"address"},{"indexed":false,"internalType":"uint256","name":"value","type":"uint256"}],"name":"Approval","type":"event"},{"anonymous":false,"inputs":[{"indexed":true,"internalType":"address","name":"minter","type":"address"}],"name":"AuthorizedMinterAdded","type":"event"},{"anonymous":false,"inputs":[{"indexed":true,"internalType":"address","name":"minter","type":"address"}],"name":"AuthorizedMinterRemoved","type":"event"},{"anonymous":false,"inputs":[{"indexed":true,"internalType":"address","name":"previousOwner","type":"address"},{"indexed":true,"internalType":"address","name":"newOwner","type":"address"}],"name":"OwnershipTransferred","type":"event"},{"anonymous":false,"inputs":[{"indexed":false,"internalType":"address","name":"account","type":"address"}],"name":"Paused","type":"event"},{"anonymous":false,"inputs":[{"indexed":false,"internalType":"string","name":"poolType","type":"string"},{"indexed":false,"internalType":"uint256","name":"amount","type":"uint256"}],"name":"PoolRefilled","type":"event"},{"anonymous":false,"inputs":[{"indexed":true,"internalType":"address","name":"recipient","type":"address"},{"indexed":false,"internalType":"uint256","name":"amount","type":"uint256"},{"indexed":false,"internalType":"string","name":"rewardType","type":"string"}],"name":"RewardMinted","type":"event"},{"anonymous":false,"inputs":[{"indexed":true,"internalType":"address","name":"from","type":"address"},{"indexed":true,"internalType":"address","name":"to","type":"address"},{"indexed":false,"internalType":"uint256","name":"value","type":"uint256"}],"name":"Transfer","type":"event"},{"anonymous":false,"inputs":[{"indexed":false,"internalType":"address","name":"account","type":"address"}],"name":"Unpaused","type":"event"},{"inputs":[],"name":"COMMUNITY_REWARDS","outputs":[{"internalType":"uint256","name":"","type":"uint256"}],"stateMutability":"view","type":"function"},{"inputs":[],"name":"ECOSYSTEM_FUND","outputs":[{"internalType":"uint256","name":"","type":"uint256"}],"stateMutability":"view","type":"function"},{"inputs":[],"name":"INITIAL_SUPPLY","outputs":[{"internalType":"uint256","name":"","type":"uint256"}],"stateMutability":"view","type":"function"},{"inputs":[],"name":"LIQUIDITY_POOL","outputs":[{"internalType":"uint256","name":"","type":"uint256"}],"stateMutability":"view","type":"function"},{"inputs":[],"name":"MAX_SUPPLY","outputs":[{"internalType":"uint256","name":"","type":"uint256"}],"stateMutability":"view","type":"function"},{"inputs":[],"name":"TEAM_ALLOCATION","outputs":[{"internalType":"uint256","name":"","type":"uint256"}],"stateMutability":"view","type":"function"},{"inputs":[{"internalType":"address","name":"minter","type":"address"}],"name":"addAuthorizedMinter","outputs":[],"stateMutability":"nonpayable","type":"function"},{"inputs":[{"internalType":"address","name":"owner","type":"address"},{"internalType":"address","name":"spender","type":"address"}],"name":"allowance","outputs":[{"internalType":"uint256","name":"","type":"uint256"}],"stateMutability":"view","type":"function"},{"inputs":[{"internalType":"address","name":"spender","type":"address"},{"internalType":"uint256","name":"value","type":"uint256"}],"name":"approve","outputs":[{"internalType":"bool","name":"","type":"bool"}],"stateMutability":"nonpayable","type":"function"},{"inputs":[{"internalType":"address","name":"","type":"address"}],"name":"authorizedMinters","outputs":[{"internalType":"bool","name":"","type":"bool"}],"stateMutability":"view","type":"function"},{"inputs":[{"internalType":"address","name":"account","type":"address"}],"name":"balanceOf","outputs":[{"internalType":"uint256","name":"","type":"uint256"}],"stateMutability":"view","type":"function"},{"inputs":[{"internalType":"address[]","name":"recipients","type":"address[]"},{"internalType":"uint256[]","name":"amounts","type":"uint256[]"}],"name":"batchTransfer","outputs":[],"stateMutability":"nonpayable","type":"function"},{"inputs":[{"internalType":"uint256","name":"value","type":"uint256"}],"name":"burn","outputs":[],"stateMutability":"nonpayable","type":"function"},{"inputs":[{"internalType":"address","name":"account","type":"address"},{"internalType":"uint256","name":"value","type":"uint256"}],"name":"burnFrom","outputs":[],"stateMutability":"nonpayable","type":"function"},{"inputs":[{"internalType":"address","name":"user","type":"address"},{"internalType":"uint256","name":"baseReward","type":"uint256"},{"internalType":"uint256","name":"activityScore","type":"uint256"},{"internalType":"uint256","name":"loyaltyBonus","type":"uint256"}],"name":"calculateDynamicReward","outputs":[{"internalType":"uint256","name":"","type":"uint256"}],"stateMutability":"view","type":"function"},{"inputs":[],"name":"creatorRewardPool","outputs":[{"internalType":"uint256","name":"","type":"uint256"}],"stateMutability":"view","type":"function"},{"inputs":[],"name":"decimals","outputs":[{"internalType":"uint8","name":"","type":"uint8"}],"stateMutability":"view","type":"function"},{"inputs":[{"internalType":"address","name":"recipient","type":"address"},{"internalType":"uint256","name":"amount","type":"uint256"}],"name":"emergencyMint","outputs":[],"stateMutability":"nonpayable","type":"function"},{"inputs":[],"name":"getRewardPools","outputs":[{"internalType":"uint256","name":"playPool","type":"uint256"},{"internalType":"uint256","name":"stakingPool","type":"uint256"},{"internalType":"uint256","name":"creatorPool","type":"uint256"}],"stateMutability":"view","type":"function"},{"inputs":[{"internalType":"address","name":"","type":"address"}],"name":"lastRewardClaim","outputs":[{"internalType":"uint256","name":"","type":"uint256"}],"stateMutability":"view","type":"function"},{"inputs":[{"internalType":"address","name":"creator","type":"address"},{"internalType":"uint256","name":"amount","type":"uint256"}],"name":"mintCreatorReward","outputs":[],"stateMutability":"nonpayable","type":"function"},{"inputs":[{"internalType":"address","name":"player","type":"address"},{"internalType":"uint256","name":"amount","type":"uint256"}],"name":"mintPlayReward","outputs":[],"stateMutability":"nonpayable","type":"function"},{"inputs":[{"internalType":"address","name":"staker","type":"address"},{"internalType":"uint256","name":"amount","type":"uint256"}],"name":"mintStakingReward","outputs":[],"stateMutability":"nonpayable","type":"function"},{"inputs":[],"name":"name","outputs":[{"internalType":"string","name":"","type":"string"}],"stateMutability":"view","type":"function"},{"inputs":[],"name":"owner","outputs":[{"internalType":"address","name":"","type":"address"}],"stateMutability":"view","type":"function"},{"inputs":[],"name":"pause","outputs":[],"stateMutability":"nonpayable","type":"function"},{"inputs":[],"name":"paused","outputs":[{"internalType":"bool","name":"","type":"bool"}],"stateMutability":"view","type":"function"},{"inputs":[],"name":"playToEarnPool","outputs":[{"internalType":"uint256","name":"","type":"uint256"}],"stateMutability":"view","type":"function"},{"inputs":[{"internalType":"uint256","name":"playAmount","type":"uint256"},{"internalType":"uint256","name":"stakingAmount","type":"uint256"},{"internalType":"uint256","name":"creatorAmount","type":"uint256"}],"name":"refillRewardPools","outputs":[],"stateMutability":"nonpayable","type":"function"},{"inputs":[{"internalType":"address","name":"minter","type":"address"}],"name":"removeAuthorizedMinter","outputs":[],"stateMutability":"nonpayable","type":"function"},{"inputs":[],"name":"renounceOwnership","outputs":[],"stateMutability":"nonpayable","type":"function"},{"inputs":[],"name":"stakingRewardPool","outputs":[{"internalType":"uint256","name":"","type":"uint256"}],"stateMutability":"view","type":"function"},{"inputs":[],"name":"symbol","outputs":[{"internalType":"string","name":"","type":"string"}],"stateMutability":"view","type":"function"},{"inputs":[{"internalType":"address","name":"","type":"address"}],"name":"teamVesting","outputs":[{"internalType":"uint256","name":"","type":"uint256"}],"stateMutability":"view","type":"function"},{"inputs":[],"name":"totalSupply","outputs":[{"internalType":"uint256","name":"","type":"uint256"}],"stateMutability":"view","type":"function"},{"inputs":[{"internalType":"address","name":"to","type":"address"},{"internalType":"uint256","name":"value","type":"uint256"}],"name":"transfer","outputs":[{"internalType":"bool","name":"","type":"bool"}],"stateMutability":"nonpayable","type":"function"},{"inputs":[{"internalType":"address","name":"from","type":"address"},{"internalType":"address","name":"to","type":"address"},{"internalType":"uint256","name":"value","type":"uint256"}],"name":"transferFrom","outputs":[{"internalType":"bool","name":"","type":"bool"}],"stateMutability":"nonpayable","type":"function"},{"inputs":[{"internalType":"address","name":"newOwner","type":"address"}],"name":"transferOwnership","outputs":[],"stateMutability":"nonpayable","type":"function"},{"inputs":[],"name":"unpause","outputs":[],"stateMutability":"nonpayable","type":"function"}],"evm":{"bytecode":{"linkReferences":{},"object":"60806040523480156200001157600080fd5b5033604051806040016040528060098152602001682532ba902a37b5b2b760b91b815250604051806040016040528060038152602001624a455560e81b815250816003908162000062919062000427565b50600462000071828262000427565b5050506001600160a01b038116620000a457604051631e4fbdf760e01b8152600060048201526024015b60405180910390fd5b620000af816200014b565b50620000c7336a52b7d2dcc80cd2e40000006200019d565b6064620000e26b014adf4b7320334b90000000602862000509565b620000ee919062000529565b60085560646200010c6b014adf4b7320334b90000000602362000509565b62000118919062000529565b6009556064620001366b014adf4b7320334b90000000601962000509565b62000142919062000529565b600a5562000562565b600580546001600160a01b038381166001600160a01b0319831681179093556040519116919082907f8be0079c531659141344cd1fd0a4f28419497f9722a3daafe3b4186f6b6457e090600090a35050565b6001600160a01b038216620001c95760405163ec442f0560e01b8152600060048201526024016200009b565b620001d760008383620001db565b5050565b620001ef600554600160a01b900460ff1690565b156200023e5760405162461bcd60e51b815260206004820152601660248201527f546f6b656e207472616e7366657273207061757365640000000000000000000060448201526064016200009b565b6200024b83838362000250565b505050565b6001600160a01b0383166200027f5780600260008282546200027391906200054c565b90915550620002f39050565b6001600160a01b03831660009081526020819052604090205481811015620002d45760405163391434e360e21b81526001600160a01b038516600482015260248101829052604481018390526064016200009b565b6001600160a01b03841660009081526020819052604090209082900390555b6001600160a01b038216620003115760028054829003905562000330565b6001600160a01b03821660009081526020819052604090208054820190555b816001600160a01b0316836001600160a01b03167fddf252ad1be2c89b69c2b068fc378daa952ba7f163c4a11628f55a4df523b3ef836040516200037691815260200190565b60405180910390a3505050565b634e487b7160e01b600052604160045260246000fd5b600181811c90821680620003ae57607f821691505b602082108103620003cf57634e487b7160e01b600052602260045260246000fd5b50919050565b601f8211156200024b57600081815260208120601f850160051c81016020861015620003fe5750805b601f850160051c820191505b818110156200041f578281556001016200040a565b505050505050565b81516001600160401b0381111562000443576200044362000383565b6200045b8162000454845462000399565b84620003d5565b602080601f8311600181146200049357600084156200047a5750858301515b600019600386901b1c1916600185901b1785556200041f565b600085815260208120601f198616915b82811015620004c457888601518255948401946001909101908401620004a3565b5085821015620004e35787850151600019600388901b60f8161c191681555b5050505050600190811b01905550565b634e487b7160e01b600052601160045260246000fd5b8082028115828204841417620005235762000523620004f3565b92915050565b6000826200054757634e487b7160e01b600052601260045260246000fd5b500490565b80820180821115620005235762000523620004f3565b6117f880620005726000396000f3fe608060405234801561001057600080fd5b506004361061023d5760003560e01c806370a082311161013b578063a9059cbb116100b8578063db0135111161007c578063db013511146104d2578063dd62ed3e146104db578063e447de1714610514578063f2fde38b14610538578063fd99cbed1461054b57600080fd5b8063a9059cbb14610460578063aa2fe91b14610473578063b1e7636714610496578063c00b40e11461049f578063d8ad5231146104b257600080fd5b80638456cb59116100ff5780638456cb591461041057806388d695b2146104185780638da5cb5b1461042b57806395d89b4114610446578063983c44d61461044e57600080fd5b806370a08231146103a657806370d884da146103cf578063715018a6146103e257806379cc6790146103ea5780637ccfd71e146103fd57600080fd5b8063313ce567116101c957806342966c681161018d57806342966c681461034857806343785dc91461035b578063475ae0391461036e5780635c975abb146103815780635f710f5c1461039357600080fd5b8063313ce5671461030257806332cb6b0c146103115780633b4b4d8d146103245780633f4ba83a1461032d57806341f844c61461033557600080fd5b80631cfe31c2116102105780631cfe31c2146102aa57806323b872dd146102bd5780632b3e8eb3146102d05780632cca9dfd146102f05780632ff2e9dc146102f057600080fd5b806306fdde0314610242578063095ea7b31461026057806318160ddd146102835780631bd2a15d14610295575b600080fd5b61024a61055d565b604051610257919061131d565b60405180910390f35b61027361026e366004611387565b6105ef565b6040519015158152602001610257565b6002545b604051908152602001610257565b6102a86102a3366004611387565b610609565b005b6102876b014adf4b7320334b9000000081565b6102736102cb3660046113b1565b610739565b6102876102de3660046113ed565b60066020526000908152604090205481565b6102876a52b7d2dcc80cd2e400000081565b60405160128152602001610257565b6102876b033b2e3c9fd0803ce800000081565b61028760095481565b6102a861075d565b61028761034336600461140f565b61076f565b6102a8610356366004611448565b6107d4565b6102a8610369366004611387565b6107e1565b6102a861037c3660046113ed565b610836565b600554600160a01b900460ff16610273565b6102a86103a13660046113ed565b610887565b6102876103b43660046113ed565b6001600160a01b031660009081526020819052604090205490565b6102a86103dd366004611461565b6108db565b6102a8610a4d565b6102a86103f8366004611387565b610a5f565b6102a861040b366004611387565b610a74565b6102a8610b8f565b6102a86104263660046114d9565b610b9f565b6005546040516001600160a01b039091168152602001610257565b61024a610c5c565b6102876acecb8f27f4200f3a00000081565b61027361046e366004611387565b610c6b565b6102736104813660046113ed565b600b6020526000908152604090205460ff1681565b610287600a5481565b6102a86104ad366004611387565b610c79565b6102876104c03660046113ed565b60076020526000908152604090205481565b61028760085481565b6102876104e9366004611545565b6001600160a01b03918216600090815260016020908152604080832093909416825291909152205490565b600854600954600a5460408051938452602084019290925290820152606001610257565b6102a86105463660046113ed565b610d94565b6102876a7c13bc4b2c133c5600000081565b60606003805461056c90611578565b80601f016020809104026020016040519081016040528092919081815260200182805461059890611578565b80156105e55780601f106105ba576101008083540402835291602001916105e5565b820191906000526020600020905b8154815290600101906020018083116105c857829003601f168201915b5050505050905090565b6000336105fd818585610dcf565b60019150505b92915050565b336000908152600b602052604090205460ff166106415760405162461bcd60e51b8152600401610638906115b2565b60405180910390fd5b8060095410156106935760405162461bcd60e51b815260206004820181905260248201527f496e73756666696369656e74207374616b696e672072657761726420706f6f6c6044820152606401610638565b6b033b2e3c9fd0803ce8000000816106aa60025490565b6106b491906115f8565b11156106d25760405162461bcd60e51b81526004016106389061160b565b80600960008282546106e49190611637565b909155506106f490508282610de1565b816001600160a01b03167f765f02a4009bbabeb5bcacb42308293ab54fa68b299d9cf67bc945e839be96608260405161072d919061164a565b60405180910390a25050565b600033610747858285610e17565b610752858585610e90565b506001949350505050565b610765610eef565b61076d610f1c565b565b600080606461077e8587611677565b610788919061168e565b61079290866115f8565b905061079e83826115f8565b90506127106107ab610f71565b10156107cb5760646107be826078611677565b6107c8919061168e565b90505b95945050505050565b6107de3382610fa0565b50565b6107e9610eef565b6b033b2e3c9fd0803ce80000008161080060025490565b61080a91906115f8565b11156108285760405162461bcd60e51b81526004016106389061160b565b6108328282610de1565b5050565b61083e610eef565b6001600160a01b0381166000818152600b6020526040808220805460ff19169055517fc6711413797b8a562634e98c95d50e7619d39702ed5b82ce335dc93546c3a88c9190a250565b61088f610eef565b6001600160a01b0381166000818152600b6020526040808220805460ff19166001179055517fe6be4d6cc04eb0219337b22db08c688969a9ec8e34d9a0a2ba38a114e050f1ae9190a250565b6108e3610eef565b6000816108f084866115f8565b6108fa91906115f8565b90506b033b2e3c9fd0803ce80000008161091360025490565b61091d91906115f8565b111561093b5760405162461bcd60e51b81526004016106389061160b565b831561099157836008600082825461095391906115f8565b90915550506040517f916a4334a2ba2cd24bc4917feab5a1aadc03fa81324d41e9b4593130bd3ae78c906109889086906116b0565b60405180910390a15b82156109e75782600960008282546109a991906115f8565b90915550506040517f916a4334a2ba2cd24bc4917feab5a1aadc03fa81324d41e9b4593130bd3ae78c906109de9085906116e8565b60405180910390a15b8115610a3d5781600a60008282546109ff91906115f8565b90915550506040517f916a4334a2ba2cd24bc4917feab5a1aadc03fa81324d41e9b4593130bd3ae78c90610a3490849061170f565b60405180910390a15b610a473082610de1565b50505050565b610a55610eef565b61076d6000610fd6565b610a6a823383610e17565b6108328282610fa0565b336000908152600b602052604090205460ff16610aa35760405162461bcd60e51b8152600401610638906115b2565b80600a541015610af55760405162461bcd60e51b815260206004820181905260248201527f496e73756666696369656e742063726561746f722072657761726420706f6f6c6044820152606401610638565b6b033b2e3c9fd0803ce800000081610b0c60025490565b610b1691906115f8565b1115610b345760405162461bcd60e51b81526004016106389061160b565b80600a6000828254610b469190611637565b90915550610b5690508282610de1565b816001600160a01b03167f765f02a4009bbabeb5bcacb42308293ab54fa68b299d9cf67bc945e839be96608260405161072d9190611736565b610b97610eef565b61076d611028565b610ba7610eef565b828114610bef5760405162461bcd60e51b8152602060048201526016602482015275082e4e4c2f2e640d8cadccee8d040dad2e6dac2e8c6d60531b6044820152606401610638565b60005b83811015610c5557610c42858583818110610c0f57610c0f611763565b9050602002016020810190610c2491906113ed565b848484818110610c3657610c36611763565b90506020020135610c6b565b5080610c4d81611779565b915050610bf2565b5050505050565b60606004805461056c90611578565b6000336105fd818585610e90565b336000908152600b602052604090205460ff16610ca85760405162461bcd60e51b8152600401610638906115b2565b806008541015610cfa5760405162461bcd60e51b815260206004820152601d60248201527f496e73756666696369656e7420706c61792072657761726420706f6f6c0000006044820152606401610638565b6b033b2e3c9fd0803ce800000081610d1160025490565b610d1b91906115f8565b1115610d395760405162461bcd60e51b81526004016106389061160b565b8060086000828254610d4b9190611637565b90915550610d5b90508282610de1565b816001600160a01b03167f765f02a4009bbabeb5bcacb42308293ab54fa68b299d9cf67bc945e839be96608260405161072d9190611792565b610d9c610eef565b6001600160a01b038116610dc657604051631e4fbdf760e01b815260006004820152602401610638565b6107de81610fd6565b610ddc838383600161106b565b505050565b6001600160a01b038216610e0b5760405163ec442f0560e01b815260006004820152602401610638565b61083260008383611140565b6001600160a01b03838116600090815260016020908152604080832093861683529290522054600019811015610a475781811015610e8157604051637dc7a0d960e11b81526001600160a01b03841660048201526024810182905260448101839052606401610638565b610a478484848403600061106b565b6001600160a01b038316610eba57604051634b637e8f60e11b815260006004820152602401610638565b6001600160a01b038216610ee45760405163ec442f0560e01b815260006004820152602401610638565b610ddc838383611140565b6005546001600160a01b0316331461076d5760405163118cdaa760e01b8152336004820152602401610638565b610f2461119e565b6005805460ff60a01b191690557f5db9ee0a495bf2e6ff9c91a7834c1ba4fdd244a5e8aa4e537bd38aeae4b073aa335b6040516001600160a01b03909116815260200160405180910390a1565b60006103e8610f7f60025490565b610f89919061168e565b610f9b90670de0b6b3a7640000611677565b905090565b6001600160a01b038216610fca57604051634b637e8f60e11b815260006004820152602401610638565b61083282600083611140565b600580546001600160a01b038381166001600160a01b0319831681179093556040519116919082907f8be0079c531659141344cd1fd0a4f28419497f9722a3daafe3b4186f6b6457e090600090a35050565b6110306111c8565b6005805460ff60a01b1916600160a01b1790557f62e78cea01bee320cd4e420270b5ea74000d11b0c9f74754ebdbfc544b05a258610f543390565b6001600160a01b0384166110955760405163e602df0560e01b815260006004820152602401610638565b6001600160a01b0383166110bf57604051634a1406b160e11b815260006004820152602401610638565b6001600160a01b0380851660009081526001602090815260408083209387168352929052208290558015610a4757826001600160a01b0316846001600160a01b03167f8c5be1e5ebec7d5bd14f71427d1e84f3dd0314c0f7b2291e5b200ac8c7c3b9258460405161113291815260200190565b60405180910390a350505050565b600554600160a01b900460ff16156111935760405162461bcd60e51b8152602060048201526016602482015275151bdad95b881d1c985b9cd9995c9cc81c185d5cd95960521b6044820152606401610638565b610ddc8383836111f3565b600554600160a01b900460ff1661076d57604051638dfc202b60e01b815260040160405180910390fd5b600554600160a01b900460ff161561076d5760405163d93c066560e01b815260040160405180910390fd5b6001600160a01b03831661121e57806002600082825461121391906115f8565b909155506112909050565b6001600160a01b038316600090815260208190526040902054818110156112715760405163391434e360e21b81526001600160a01b03851660048201526024810182905260448101839052606401610638565b6001600160a01b03841660009081526020819052604090209082900390555b6001600160a01b0382166112ac576002805482900390556112cb565b6001600160a01b03821660009081526020819052604090208054820190555b816001600160a01b0316836001600160a01b03167fddf252ad1be2c89b69c2b068fc378daa952ba7f163c4a11628f55a4df523b3ef8360405161131091815260200190565b60405180910390a3505050565b600060208083528351808285015260005b8181101561134a5785810183015185820160400152820161132e565b506000604082860101526040601f19601f8301168501019250505092915050565b80356001600160a01b038116811461138257600080fd5b919050565b6000806040838503121561139a57600080fd5b6113a38361136b565b946020939093013593505050565b6000806000606084860312156113c657600080fd5b6113cf8461136b565b92506113dd6020850161136b565b9150604084013590509250925092565b6000602082840312156113ff57600080fd5b6114088261136b565b9392505050565b6000806000806080858703121561142557600080fd5b61142e8561136b565b966020860135965060408601359560600135945092505050565b60006020828403121561145a57600080fd5b5035919050565b60008060006060848603121561147657600080fd5b505081359360208301359350604090920135919050565b60008083601f84011261149f57600080fd5b50813567ffffffffffffffff8111156114b757600080fd5b6020830191508360208260051b85010111156114d257600080fd5b9250929050565b600080600080604085870312156114ef57600080fd5b843567ffffffffffffffff8082111561150757600080fd5b6115138883890161148d565b9096509450602087013591508082111561152c57600080fd5b506115398782880161148d565b95989497509550505050565b6000806040838503121561155857600080fd5b6115618361136b565b915061156f6020840161136b565b90509250929050565b600181811c9082168061158c57607f821691505b6020821081036115ac57634e487b7160e01b600052602260045260246000fd5b50919050565b602080825260169082015275139bdd08185d5d1a1bdc9a5e9959081d1bc81b5a5b9d60521b604082015260600190565b634e487b7160e01b600052601160045260246000fd5b80820180821115610603576106036115e2565b60208082526012908201527145786365656473206d617820737570706c7960701b604082015260600190565b81810381811115610603576106036115e2565b8181526040602082015260006114086040830160078152665374616b696e6760c81b602082015260400190565b8082028115828204841417610603576106036115e2565b6000826116ab57634e487b7160e01b600052601260045260246000fd5b500490565b6040815260006116da60408301600a815269283630bcaa37a2b0b93760b11b602082015260400190565b905082602083015292915050565b6040815260006116da6040830160078152665374616b696e6760c81b602082015260400190565b6040815260006116da60408301600781526621b932b0ba37b960c91b602082015260400190565b81815260406020820152600061140860408301600781526621b932b0ba37b960c91b602082015260400190565b634e487b7160e01b600052603260045260246000fd5b60006001820161178b5761178b6115e2565b5060010190565b81815260406020820152600061140860408301600a815269283630bcaa37a2b0b93760b11b60208201526040019056fea26469706673582212205bf85061d44a31a30b9cdb44221354e791fd12c351eb9f2d7c7c74e10fdfa63964736f6c63430008140033","opcodes":"PUSH1 0x80 PUSH1 0x40 MSTORE CALLVALUE DUP1 ISZERO PUSH3 0x11 JUMPI PUSH1 0x0 DUP1 REVERT JUMPDEST POP CALLER PUSH1 0x40 MLOAD DUP1 PUSH1 0x40 ADD PUSH1 0x40 MSTORE DUP1 PUSH1 0x9 DUP2 MSTORE PUSH1 0x20 ADD PUSH9 0x2532BA902A37B5B2B7 PUSH1 0xB9 SHL DUP2 MSTORE POP PUSH1 0x40 MLOAD DUP1 PUSH1 0x40 ADD PUSH1 0x40 MSTORE DUP1 PUSH1 0x3 DUP2 MSTORE PUSH1 0x20 ADD PUSH3 0x4A4555 PUSH1 0xE8 SHL DUP2 MSTORE POP DUP2 PUSH1 0x3 SWAP1 DUP2 PUSH3 0x62 SWAP2 SWAP1 PUSH3 0x427 JUMP JUMPDEST POP PUSH1 0x4 PUSH3 0x71 DUP3 DUP3 PUSH3 0x427 JUMP JUMPDEST POP POP POP PUSH1 0x1 PUSH1 0x1 PUSH1 0xA0 SHL SUB DUP2 AND PUSH3 0xA4 JUMPI PUSH1 0x40 MLOAD PUSH4 0x1E4FBDF7 PUSH1 0xE0 SHL DUP2 MSTORE PUSH1 0x0 PUSH1 0x4 DUP3 ADD MSTORE PUSH1 0x24 ADD JUMPDEST PUSH1 0x40 MLOAD DUP1 SWAP2 SUB SWAP1 REVERT JUMPDEST PUSH3 0xAF DUP2 PUSH3 0x14B JUMP JUMPDEST POP PUSH3 0xC7 CALLER PUSH11 0x52B7D2DCC80CD2E4000000 PUSH3 0x19D JUMP JUMPDEST PUSH1 0x64 PUSH3 0xE2 PUSH12 0x14ADF4B7320334B90000000 PUSH1 0x28 PUSH3 0x509 JUMP JUMPDEST PUSH3 0xEE SWAP2 SWAP1 PUSH3 0x529 JUMP JUMPDEST PUSH1 0x8 SSTORE PUSH1 0x64 PUSH3 0x10C PUSH12 0x14ADF4B7320334B90000000 PUSH1 0x23 PUSH3 0x509 JUMP JUMPDEST PUSH3 0x118 SWAP2 SWAP1 PUSH3 0x529 JUMP JUMPDEST PUSH1 0x9 SSTORE PUSH1 0x64 PUSH3 0x136 PUSH12 0x14ADF4B7320334B90000000 PUSH1 0x19 PUSH3 0x509 JUMP JUMPDEST PUSH3 0x142 SWAP2 SWAP1 PUSH3 0x529 JUMP JUMPDEST PUSH1 0xA SSTORE PUSH3 0x562 JUMP JUMPDEST PUSH1 0x5 DUP1 SLOAD PUSH1 0x1 PUSH1 0x1 PUSH1 0xA0 SHL SUB DUP4 DUP2 AND PUSH1 0x1 PUSH1 0x1 PUSH1 0xA0 SHL SUB NOT DUP4 AND DUP2 OR SWAP1 SWAP4 SSTORE PUSH1 0x40 MLOAD SWAP2 AND SWAP2 SWAP1 DUP3 SWAP1 PUSH32 0x8BE0079C531659141344CD1FD0A4F28419497F9722A3DAAFE3B4186F6B6457E0 SWAP1 PUSH1 0x0 SWAP1 LOG3 POP POP JUMP JUMPDEST PUSH1 0x1 PUSH1 0x1 PUSH1 0xA0 SHL SUB DUP3 AND PUSH3 0x1C9 JUMPI PUSH1 0x40 MLOAD PUSH4 0xEC442F05 PUSH1 0xE0 SHL DUP2 MSTORE PUSH1 0x0 PUSH1 0x4 DUP3 ADD MSTORE PUSH1 0x24 ADD PUSH3 0x9B JUMP JUMPDEST PUSH3 0x1D7 PUSH1 0x0 DUP4 DUP4 PUSH3 0x1DB JUMP JUMPDEST POP POP JUMP JUMPDEST PUSH3 0x1EF PUSH1 0x5 SLOAD PUSH1 0x1 PUSH1 0xA0 SHL SWAP1 DIV PUSH1 0xFF AND SWAP1 JUMP JUMPDEST ISZERO PUSH3 0x23E JUMPI PUSH1 0x40 MLOAD PUSH3 0x461BCD PUSH1 0xE5 SHL DUP2 MSTORE PUSH1 0x20 PUSH1 0x4 DUP3 ADD MSTORE PUSH1 0x16 PUSH1 0x24 DUP3 ADD MSTORE PUSH32 0x546F6B656E207472616E73666572732070617573656400000000000000000000 PUSH1 0x44 DUP3 ADD MSTORE PUSH1 0x64 ADD PUSH3 0x9B JUMP JUMPDEST PUSH3 0x24B DUP4 DUP4 DUP4 PUSH3 0x250 JUMP JUMPDEST POP POP POP JUMP JUMPDEST PUSH1 0x1 PUSH1 0x1 PUSH1 0xA0 SHL SUB DUP4 AND PUSH3 0x27F JUMPI DUP1 PUSH1 0x2 PUSH1 0x0 DUP3 DUP3 SLOAD PUSH3 0x273 SWAP2 SWAP1 PUSH3 0x54C JUMP JUMPDEST SWAP1 SWAP2 SSTORE POP PUSH3 0x2F3 SWAP1 POP JUMP JUMPDEST PUSH1 0x1 PUSH1 0x1 PUSH1 0xA0 SHL SUB DUP4 AND PUSH1 0x0 SWAP1 DUP2 MSTORE PUSH1 0x20 DUP2 SWAP1 MSTORE PUSH1 0x40 SWAP1 KECCAK256 SLOAD DUP2 DUP2 LT ISZERO PUSH3 0x2D4 JUMPI PUSH1 0x40 MLOAD PUSH4 0x391434E3 PUSH1 0xE2 SHL DUP2 MSTORE PUSH1 0x1 PUSH1 0x1 PUSH1 0xA0 SHL SUB DUP6 AND PUSH1 0x4 DUP3 ADD MSTORE PUSH1 0x24 DUP2 ADD DUP3 SWAP1 MSTORE PUSH1 0x44 DUP2 ADD DUP4 SWAP1 MSTORE PUSH1 0x64 ADD PUSH3 0x9B JUMP JUMPDEST PUSH1 0x1 PUSH1 0x1 PUSH1 0xA0 SHL SUB DUP5 AND PUSH1 0x0 SWAP1 DUP2 MSTORE PUSH1 0x20 DUP2 SWAP1 MSTORE PUSH1 0x40 SWAP1 KECCAK256 SWAP1 DUP3 SWAP1 SUB SWAP1 SSTORE JUMPDEST PUSH1 0x1 PUSH1 0x1 PUSH1 0xA0 SHL SUB DUP3 AND PUSH3 0x311 JUMPI PUSH1 0x2 DUP1 SLOAD DUP3 SWAP1 SUB SWAP1 SSTORE PUSH3 0x330 JUMP JUMPDEST PUSH1 0x1 PUSH1 0x1 PUSH1 0xA0 SHL SUB DUP3 AND PUSH1 0x0 SWAP1 DUP2 MSTORE PUSH1 0x20 DUP2 SWAP1 MSTORE PUSH1 0x40 SWAP1 KECCAK256 DUP1 SLOAD DUP3 ADD SWAP1 SSTORE JUMPDEST DUP2 PUSH1 0x1 PUSH1 0x1 PUSH1 0xA0 SHL SUB AND DUP4 PUSH1 0x1 PUSH1 0x1 PUSH1 0xA0 SHL SUB AND PUSH32 0xDDF252AD1BE2C89B69C2B068FC378DAA952BA7F163C4A11628F55A4DF523B3EF DUP4 PUSH1 0x40 MLOAD PUSH3 0x376 SWAP2 DUP2 MSTORE PUSH1 0x20 ADD SWAP1 JUMP JUMPDEST PUSH1 0x40 MLOAD DUP1 SWAP2 SUB SWAP1 LOG3 POP POP POP JUMP JUMPDEST PUSH4 0x4E487B71 PUSH1 0xE0 SHL PUSH1 0x0 MSTORE PUSH1 0x41 PUSH1 0x4 MSTORE PUSH1 0x24 PUSH1 0x0 REVERT JUMPDEST PUSH1 0x1 DUP2 DUP2 SHR SWAP1 DUP3 AND DUP1 PUSH3 0x3AE JUMPI PUSH1 0x7F DUP3 AND SWAP2 POP JUMPDEST PUSH1 0x20 DUP3 LT DUP2 SUB PUSH3 0x3CF JUMPI PUSH4 0x4E487B71 PUSH1 0xE0 SHL PUSH1 0x0 MSTORE PUSH1 0x22 PUSH1 0x4 MSTORE PUSH1 0x24 PUSH1 0x0 REVERT JUMPDEST POP SWAP2 SWAP1 POP JUMP JUMPDEST PUSH1 0x1F DUP3 GT ISZERO PUSH3 0x24B JUMPI PUSH1 0x0 DUP2 DUP2 MSTORE PUSH1 0x20 DUP2 KECCAK256 PUSH1 0x1F DUP6 ADD PUSH1 0x5 SHR DUP2 ADD PUSH1 0x20 DUP7 LT ISZERO PUSH3 0x3FE JUMPI POP DUP1 JUMPDEST PUSH1 0x1F DUP6 ADD PUSH1 0x5 SHR DUP3 ADD SWAP2 POP JUMPDEST DUP2 DUP2 LT ISZERO PUSH3 0x41F JUMPI DUP3 DUP2 SSTORE PUSH1 0x1 ADD PUSH3 0x40A JUMP JUMPDEST POP POP POP POP POP POP JUMP JUMPDEST DUP2 MLOAD PUSH1 0x1 PUSH1 0x1 PUSH1 0x40 SHL SUB DUP2 GT ISZERO PUSH3 0x443 JUMPI PUSH3 0x443 PUSH3 0x383 JUMP JUMPDEST PUSH3 0x45B DUP2 PUSH3 0x454 DUP5 SLOAD PUSH3 0x399 JUMP JUMPDEST DUP5 PUSH3 0x3D5 JUMP JUMPDEST PUSH1 0x20 DUP1 PUSH1 0x1F DUP4 GT PUSH1 0x1 DUP2 EQ PUSH3 0x493 JUMPI PUSH1 0x0 DUP5 ISZERO PUSH3 0x47A JUMPI POP DUP6 DUP4 ADD MLOAD JUMPDEST PUSH1 0x0 NOT PUSH1 0x3 DUP7 SWAP1 SHL SHR NOT AND PUSH1 0x1 DUP6 SWAP1 SHL OR DUP6 SSTORE PUSH3 0x41F JUMP JUMPDEST PUSH1 0x0 DUP6 DUP2 MSTORE PUSH1 0x20 DUP2 KECCAK256 PUSH1 0x1F NOT DUP7 AND SWAP2 JUMPDEST DUP3 DUP2 LT ISZERO PUSH3 0x4C4 JUMPI DUP9 DUP7 ADD MLOAD DUP3 SSTORE SWAP5 DUP5 ADD SWAP5 PUSH1 0x1 SWAP1 SWAP2 ADD SWAP1 DUP5 ADD PUSH3 0x4A3 JUMP JUMPDEST POP DUP6 DUP3 LT ISZERO PUSH3 0x4E3 JUMPI DUP8 DUP6 ADD MLOAD PUSH1 0x0 NOT PUSH1 0x3 DUP9 SWAP1 SHL PUSH1 0xF8 AND SHR NOT AND DUP2 SSTORE JUMPDEST POP POP POP POP POP PUSH1 0x1 SWAP1 DUP2 SHL ADD SWAP1 SSTORE POP JUMP JUMPDEST PUSH4 0x4E487B71 PUSH1 0xE0 SHL PUSH1 0x0 MSTORE PUSH1 0x11 PUSH1 0x4 MSTORE PUSH1 0x24 PUSH1 0x0 REVERT JUMPDEST DUP1 DUP3 MUL DUP2 ISZERO DUP3 DUP3 DIV DUP5 EQ OR PUSH3 0x523 JUMPI PUSH3 0x523 PUSH3 0x4F3 JUMP JUMPDEST SWAP3 SWAP2 POP POP JUMP JUMPDEST PUSH1 0x0 DUP3 PUSH3 0x547 JUMPI PUSH4 0x4E487B71 PUSH1 0xE0 SHL PUSH1 0x0 MSTORE PUSH1 0x12 PUSH1 0x4 MSTORE PUSH1 0x24 PUSH1 0x0 REVERT JUMPDEST POP DIV SWAP1 JUMP JUMPDEST DUP1 DUP3 ADD DUP1 DUP3 GT ISZERO PUSH3 0x523 JUMPI PUSH3 0x523 PUSH3 0x4F3 JUMP JUMPDEST PUSH2 0x17F8 DUP1 PUSH3 0x572 PUSH1 0x0 CODECOPY PUSH1 0x0 RETURN INVALID PUSH1 0x80 PUSH1 0x40 MSTORE CALLVALUE DUP1 ISZERO PUSH2 0x10 JUMPI PUSH1 0x0 DUP1 REVERT JUMPDEST POP PUSH1 0x4 CALLDATASIZE LT PUSH2 0x23D JUMPI PUSH1 0x0 CALLDATALOAD PUSH1 0xE0 SHR DUP1 PUSH4 0x70A08231 GT PUSH2 0x13B JUMPI DUP1 PUSH4 0xA9059CBB GT PUSH2 0xB8 JUMPI DUP1 PUSH4 0xDB013511 GT PUSH2 0x7C JUMPI DUP1 PUSH4 0xDB013511 EQ PUSH2 0x4D2 JUMPI DUP1 PUSH4 0xDD62ED3E EQ PUSH2 0x4DB JUMPI DUP1 PUSH4 0xE447DE17 EQ PUSH2 0x514 JUMPI DUP1 PUSH4 0xF2FDE38B EQ PUSH2 0x538 JUMPI DUP1 PUSH4 0xFD99CBED EQ PUSH2 0x54B JUMPI PUSH1 0x0 DUP1 REVERT JUMPDEST DUP1 PUSH4 0xA9059CBB EQ PUSH2 0x460 JUMPI DUP1 PUSH4 0xAA2FE91B EQ PUSH2 0x473 JUMPI DUP1 PUSH4 0xB1E76367 EQ PUSH2 0x496 JUMPI DUP1 PUSH4 0xC00B40E1 EQ PUSH2 0x49F JUMPI DUP1 PUSH4 0xD8AD5231 EQ PUSH2 0x4B2 JUMPI PUSH1 0x0 DUP1 REVERT JUMPDEST DUP1 PUSH4 0x8456CB59 GT PUSH2 0xFF JUMPI DUP1 PUSH4 0x8456CB59 EQ PUSH2 0x410 JUMPI DUP1 PUSH4 0x88D695B2 EQ PUSH2 0x418 JUMPI DUP1 PUSH4 0x8DA5CB5B EQ PUSH2 0x42B JUMPI DUP1 PUSH4 0x95D89B41 EQ PUSH2 0x446 JUMPI DUP1 PUSH4 0x983C44D6 EQ PUSH2 0x44E JUMPI PUSH1 0x0 DUP1 REVERT JUMPDEST DUP1 PUSH4 0x70A08231 EQ PUSH2 0x3A6 JUMPI DUP1 PUSH4 0x70D884DA EQ PUSH2 0x3CF JUMPI DUP1 PUSH4 0x715018A6 EQ PUSH2 0x3E2 JUMPI DUP1 PUSH4 0x79CC6790 EQ PUSH2 0x3EA JUMPI DUP1 PUSH4 0x7CCFD71E EQ PUSH2 0x3FD JUMPI PUSH1 0x0 DUP1 REVERT JUMPDEST DUP1 PUSH4 0x313CE567 GT PUSH2 0x1C9 JUMPI DUP1 PUSH4 0x42966C68 GT PUSH2 0x18D JUMPI DUP1 PUSH4 0x42966C68 EQ PUSH2 0x348 JUMPI DUP1 PUSH4 0x43785DC9 EQ PUSH2 0x35B JUMPI DUP1 PUSH4 0x475AE039 EQ PUSH2 0x36E JUMPI DUP1 PUSH4 0x5C975ABB EQ PUSH2 0x381 JUMPI DUP1 PUSH4 0x5F710F5C EQ PUSH2 0x393 JUMPI PUSH1 0x0 DUP1 REVERT JUMPDEST DUP1 PUSH4 0x313CE567 EQ PUSH2 0x302 JUMPI DUP1 PUSH4 0x32CB6B0C EQ PUSH2 0x311 JUMPI DUP1 PUSH4 0x3B4B4D8D EQ PUSH2 0x324 JUMPI DUP1 PUSH4 0x3F4BA83A EQ PUSH2 0x32D JUMPI DUP1 PUSH4 0x41F844C6 EQ PUSH2 0x335 JUMPI PUSH1 0x0 DUP1 REVERT JUMPDEST DUP1 PUSH4 0x1CFE31C2 GT PUSH2 0x210 JUMPI DUP1 PUSH4 0x1CFE31C2 EQ PUSH2 0x2AA JUMPI DUP1 PUSH4 0x23B872DD EQ PUSH2 0x2BD JUMPI DUP1 PUSH4 0x2B3E8EB3 EQ PUSH2 0x2D0 JUMPI DUP1 PUSH4 0x2CCA9DFD EQ PUSH2 0x2F0 JUMPI DUP1 PUSH4 0x2FF2E9DC EQ PUSH2 0x2F0 JUMPI PUSH1 0x0 DUP1 REVERT JUMPDEST DUP1 PUSH4 0x6FDDE03 EQ PUSH2 0x242 JUMPI DUP1 PUSH4 0x95EA7B3 EQ PUSH2 0x260 JUMPI DUP1 PUSH4 0x18160DDD EQ PUSH2 0x283 JUMPI DUP1 PUSH4 0x1BD2A15D EQ PUSH2 0x295 JUMPI JUMPDEST PUSH1 0x0 DUP1 REVERT JUMPDEST PUSH2 0x24A PUSH2 0x55D JUMP JUMPDEST PUSH1 0x40 MLOAD PUSH2 0x257 SWAP2 SWAP1 PUSH2 0x131D JUMP JUMPDEST PUSH1 0x40 MLOAD DUP1 SWAP2 SUB SWAP1 RETURN JUMPDEST PUSH2 0x273 PUSH2 0x26E CALLDATASIZE PUSH1 0x4 PUSH2 0x1387 JUMP JUMPDEST PUSH2 0x5EF JUMP JUMPDEST PUSH1 0x40 MLOAD SWAP1 ISZERO ISZERO DUP2 MSTORE PUSH1 0x20 ADD PUSH2 0x257 JUMP JUMPDEST PUSH1 0x2 SLOAD JUMPDEST PUSH1 0x40 MLOAD SWAP1 DUP2 MSTORE PUSH1 0x20 ADD PUSH2 0x257 JUMP JUMPDEST PUSH2 0x2A8 PUSH2 0x2A3 CALLDATASIZE PUSH1 0x4 PUSH2 0x1387 JUMP JUMPDEST PUSH2 0x609 JUMP JUMPDEST STOP JUMPDEST PUSH2 0x287 PUSH12 0x14ADF4B7320334B90000000 DUP2 JUMP JUMPDEST PUSH2 0x273 PUSH2 0x2CB CALLDATASIZE PUSH1 0x4 PUSH2 0x13B1 JUMP JUMPDEST PUSH2 0x739 JUMP JUMPDEST PUSH2 0x287 PUSH2 0x2DE CALLDATASIZE PUSH1 0x4 PUSH2 0x13ED JUMP JUMPDEST PUSH1 0x6 PUSH1 0x20 MSTORE PUSH1 0x0 SWAP1 DUP2 MSTORE PUSH1 0x40 SWAP1 KECCAK256 SLOAD DUP2 JUMP JUMPDEST PUSH2 0x287 PUSH11 0x52B7D2DCC80CD2E4000000 DUP2 JUMP JUMPDEST PUSH1 0x40 MLOAD PUSH1 0x12 DUP2 MSTORE PUSH1 0x20 ADD PUSH2 0x257 JUMP JUMPDEST PUSH2 0x287 PUSH12 0x33B2E3C9FD0803CE8000000 DUP2 JUMP JUMPDEST PUSH2 0x287 PUSH1 0x9 SLOAD DUP2 JUMP JUMPDEST PUSH2 0x2A8 PUSH2 0x75D JUMP JUMPDEST PUSH2 0x287 PUSH2 0x343 CALLDATASIZE PUSH1 0x4 PUSH2 0x140F JUMP JUMPDEST PUSH2 0x76F JUMP JUMPDEST PUSH2 0x2A8 PUSH2 0x356 CALLDATASIZE PUSH1 0x4 PUSH2 0x1448 JUMP JUMPDEST PUSH2 0x7D4 JUMP JUMPDEST PUSH2 0x2A8 PUSH2 0x369 CALLDATASIZE PUSH1 0x4 PUSH2 0x1387 JUMP JUMPDEST PUSH2 0x7E1 JUMP JUMPDEST PUSH2 0x2A8 PUSH2 0x37C CALLDATASIZE PUSH1 0x4 PUSH2 0x13ED JUMP JUMPDEST PUSH2 0x836 JUMP JUMPDEST PUSH1 0x5 SLOAD PUSH1 0x1 PUSH1 0xA0 SHL SWAP1 DIV PUSH1 0xFF AND PUSH2 0x273 JUMP JUMPDEST PUSH2 0x2A8 PUSH2 0x3A1 CALLDATASIZE PUSH1 0x4 PUSH2 0x13ED JUMP JUMPDEST PUSH2 0x887 JUMP JUMPDEST PUSH2 0x287 PUSH2 0x3B4 CALLDATASIZE PUSH1 0x4 PUSH2 0x13ED JUMP JUMPDEST PUSH1 0x1 PUSH1 0x1 PUSH1 0xA0 SHL SUB AND PUSH1 0x0 SWAP1 DUP2 MSTORE PUSH1 0x20 DUP2 SWAP1 MSTORE PUSH1 0x40 SWAP1 KECCAK256 SLOAD SWAP1 JUMP JUMPDEST PUSH2 0x2A8 PUSH2 0x3DD CALLDATASIZE PUSH1 0x4 PUSH2 0x1461 JUMP JUMPDEST PUSH2 0x8DB JUMP JUMPDEST PUSH2 0x2A8 PUSH2 0xA4D JUMP JUMPDEST PUSH2 0x2A8 PUSH2 0x3F8 CALLDATASIZE PUSH1 0x4 PUSH2 0x1387 JUMP JUMPDEST PUSH2 0xA5F JUMP JUMPDEST PUSH2 0x2A8 PUSH2 0x40B CALLDATASIZE PUSH1 0x4 PUSH2 0x1387 JUMP JUMPDEST PUSH2 0xA74 JUMP JUMPDEST PUSH2 0x2A8 PUSH2 0xB8F JUMP JUMPDEST PUSH2 0x2A8 PUSH2 0x426 CALLDATASIZE PUSH1 0x4 PUSH2 0x14D9 JUMP JUMPDEST PUSH2 0xB9F JUMP JUMPDEST PUSH1 0x5 SLOAD PUSH1 0x40 MLOAD PUSH1 0x1 PUSH1 0x1 PUSH1 0xA0 SHL SUB SWAP1 SWAP2 AND DUP2 MSTORE PUSH1 0x20 ADD PUSH2 0x257 JUMP JUMPDEST PUSH2 0x24A PUSH2 0xC5C JUMP JUMPDEST PUSH2 0x287 PUSH11 0xCECB8F27F4200F3A000000 DUP2 JUMP JUMPDEST PUSH2 0x273 PUSH2 0x46E CALLDATASIZE PUSH1 0x4 PUSH2 0x1387 JUMP JUMPDEST PUSH2 0xC6B JUMP JUMPDEST PUSH2 0x273 PUSH2 0x481 CALLDATASIZE PUSH1 0x4 PUSH2 0x13ED JUMP JUMPDEST PUSH1 0xB PUSH1 0x20 MSTORE PUSH1 0x0 SWAP1 DUP2 MSTORE PUSH1 0x40 SWAP1 KECCAK256 SLOAD PUSH1 0xFF AND DUP2 JUMP JUMPDEST PUSH2 0x287 PUSH1 0xA SLOAD DUP2 JUMP JUMPDEST PUSH2 0x2A8 PUSH2 0x4AD CALLDATASIZE PUSH1 0x4 PUSH2 0x1387 JUMP JUMPDEST PUSH2 0xC79 JUMP JUMPDEST PUSH2 0x287 PUSH2 0x4C0 CALLDATASIZE PUSH1 0x4 PUSH2 0x13ED JUMP JUMPDEST PUSH1 0x7 PUSH1 0x20 MSTORE PUSH1 0x0 SWAP1 DUP2 MSTORE PUSH1 0x40 SWAP1 KECCAK256 SLOAD DUP2 JUMP JUMPDEST PUSH2 0x287 PUSH1 0x8 SLOAD DUP2 JUMP JUMPDEST PUSH2 0x287 PUSH2 0x4E9 CALLDATASIZE PUSH1 0x4 PUSH2 0x1545 JUMP JUMPDEST PUSH1 0x1 PUSH1 0x1 PUSH1 0xA0 SHL SUB SWAP2 DUP3 AND PUSH1 0x0 SWAP1 DUP2 MSTORE PUSH1 0x1 PUSH1 0x20 SWAP1 DUP2 MSTORE PUSH1 0x40 DUP1 DUP4 KECCAK256 SWAP4 SWAP1 SWAP5 AND DUP3 MSTORE SWAP2 SWAP1 SWAP2 MSTORE KECCAK256 SLOAD SWAP1 JUMP JUMPDEST PUSH1 0x8 SLOAD PUSH1 0x9 SLOAD PUSH1 0xA SLOAD PUSH1 0x40 DUP1 MLOAD SWAP4 DUP5 MSTORE PUSH1 0x20 DUP5 ADD SWAP3 SWAP1 SWAP3 MSTORE SWAP1 DUP3 ADD MSTORE PUSH1 0x60 ADD PUSH2 0x257 JUMP JUMPDEST PUSH2 0x2A8 PUSH2 0x546 CALLDATASIZE PUSH1 0x4 PUSH2 0x13ED JUMP JUMPDEST PUSH2 0xD94 JUMP JUMPDEST PUSH2 0x287 PUSH11 0x7C13BC4B2C133C56000000 DUP2 JUMP JUMPDEST PUSH1 0x60 PUSH1 0x3 DUP1 SLOAD PUSH2 0x56C SWAP1 PUSH2 0x1578 JUMP JUMPDEST DUP1 PUSH1 0x1F ADD PUSH1 0x20 DUP1 SWAP2 DIV MUL PUSH1 0x20 ADD PUSH1 0x40 MLOAD SWAP1 DUP2 ADD PUSH1 0x40 MSTORE DUP1 SWAP3 SWAP2 SWAP1 DUP2 DUP2 MSTORE PUSH1 0x20 ADD DUP3 DUP1 SLOAD PUSH2 0x598 SWAP1 PUSH2 0x1578 JUMP JUMPDEST DUP1 ISZERO PUSH2 0x5E5 JUMPI DUP1 PUSH1 0x1F LT PUSH2 0x5BA JUMPI PUSH2 0x100 DUP1 DUP4 SLOAD DIV MUL DUP4 MSTORE SWAP2 PUSH1 0x20 ADD SWAP2 PUSH2 0x5E5 JUMP JUMPDEST DUP3 ADD SWAP2 SWAP1 PUSH1 0x0 MSTORE PUSH1 0x20 PUSH1 0x0 KECCAK256 SWAP1 JUMPDEST DUP2 SLOAD DUP2 MSTORE SWAP1 PUSH1 0x1 ADD SWAP1 PUSH1 0x20 ADD DUP1 DUP4 GT PUSH2 0x5C8 JUMPI DUP3 SWAP1 SUB PUSH1 0x1F AND DUP3 ADD SWAP2 JUMPDEST POP POP POP POP POP SWAP1 POP SWAP1 JUMP JUMPDEST PUSH1 0x0 CALLER PUSH2 0x5FD DUP2 DUP6 DUP6 PUSH2 0xDCF JUMP JUMPDEST PUSH1 0x1 SWAP2 POP POP JUMPDEST SWAP3 SWAP2 POP POP JUMP JUMPDEST CALLER PUSH1 0x0 SWAP1 DUP2 MSTORE PUSH1 0xB PUSH1 0x20 MSTORE PUSH1 0x40 SWAP1 KECCAK256 SLOAD PUSH1 0xFF AND PUSH2 0x641 JUMPI PUSH1 0x40 MLOAD PUSH3 0x461BCD PUSH1 0xE5 SHL DUP2 MSTORE PUSH1 0x4 ADD PUSH2 0x638 SWAP1 PUSH2 0x15B2 JUMP JUMPDEST PUSH1 0x40 MLOAD DUP1 SWAP2 SUB SWAP1 REVERT JUMPDEST DUP1 PUSH1 0x9 SLOAD LT ISZERO PUSH2 0x693 JUMPI PUSH1 0x40 MLOAD PUSH3 0x461BCD PUSH1 0xE5 SHL DUP2 MSTORE PUSH1 0x20 PUSH1 0x4 DUP3 ADD DUP2 SWAP1 MSTORE PUSH1 0x24 DUP3 ADD MSTORE PUSH32 0x496E73756666696369656E74207374616B696E672072657761726420706F6F6C PUSH1 0x44 DUP3 ADD MSTORE PUSH1 0x64 ADD PUSH2 0x638 JUMP JUMPDEST PUSH12 0x33B2E3C9FD0803CE8000000 DUP2 PUSH2 0x6AA PUSH1 0x2 SLOAD SWAP1 JUMP JUMPDEST PUSH2 0x6B4 SWAP2 SWAP1 PUSH2 0x15F8 JUMP JUMPDEST GT ISZERO PUSH2 0x6D2 JUMPI PUSH1 0x40 MLOAD PUSH3 0x461BCD PUSH1 0xE5 SHL DUP2 MSTORE PUSH1 0x4 ADD PUSH2 0x638 SWAP1 PUSH2 0x160B JUMP JUMPDEST DUP1 PUSH1 0x9 PUSH1 0x0 DUP3 DUP3 SLOAD PUSH2 0x6E4 SWAP2 SWAP1 PUSH2 0x1637 JUMP JUMPDEST SWAP1 SWAP2 SSTORE POP PUSH2 0x6F4 SWAP1 POP DUP3 DUP3 PUSH2 0xDE1 JUMP JUMPDEST DUP2 PUSH1 0x1 PUSH1 0x1 PUSH1 0xA0 SHL SUB AND PUSH32 0x765F02A4009BBABEB5BCACB42308293AB54FA68B299D9CF67BC945E839BE9660 DUP3 PUSH1 0x40 MLOAD PUSH2 0x72D SWAP2 SWAP1 PUSH2 0x164A JUMP JUMPDEST PUSH1 0x40 MLOAD DUP1 SWAP2 SUB SWAP1 LOG2 POP POP JUMP JUMPDEST PUSH1 0x0 CALLER PUSH2 0x747 DUP6 DUP3 DUP6 PUSH2 0xE17 JUMP JUMPDEST PUSH2 0x752 DUP6 DUP6 DUP6 PUSH2 0xE90 JUMP JUMPDEST POP PUSH1 0x1 SWAP5 SWAP4 POP POP POP POP JUMP JUMPDEST PUSH2 0x765 PUSH2 0xEEF JUMP JUMPDEST PUSH2 0x76D PUSH2 0xF1C JUMP JUMPDEST JUMP JUMPDEST PUSH1 0x0 DUP1 PUSH1 0x64 PUSH2 0x77E DUP6 DUP8 PUSH2 0x1677 JUMP JUMPDEST PUSH2 0x788 SWAP2 SWAP1 PUSH2 0x168E JUMP JUMPDEST PUSH2 0x792 SWAP1 DUP7 PUSH2 0x15F8 JUMP JUMPDEST SWAP1 POP PUSH2 0x79E DUP4 DUP3 PUSH2 0x15F8 JUMP JUMPDEST SWAP1 POP PUSH2 0x2710 PUSH2 0x7AB PUSH2 0xF71 JUMP JUMPDEST LT ISZERO PUSH2 0x7CB JUMPI PUSH1 0x64 PUSH2 0x7BE DUP3 PUSH1 0x78 PUSH2 0x1677 JUMP JUMPDEST PUSH2 0x7C8 SWAP2 SWAP1 PUSH2 0x168E JUMP JUMPDEST SWAP1 POP JUMPDEST SWAP6 SWAP5 POP POP POP POP POP JUMP JUMPDEST PUSH2 0x7DE CALLER DUP3 PUSH2 0xFA0 JUMP JUMPDEST POP JUMP JUMPDEST PUSH2 0x7E9 PUSH2 0xEEF JUMP JUMPDEST PUSH12 0x33B2E3C9FD0803CE8000000 DUP2 PUSH2 0x800 PUSH1 0x2 SLOAD SWAP1 JUMP JUMPDEST PUSH2 0x80A SWAP2 SWAP1 PUSH2 0x15F8 JUMP JUMPDEST GT ISZERO PUSH2 0x828 JUMPI PUSH1 0x40 MLOAD PUSH3 0x461BCD PUSH1 0xE5 SHL DUP2 MSTORE PUSH1 0x4 ADD PUSH2 0x638 SWAP1 PUSH2 0x160B JUMP JUMPDEST PUSH2 0x832 DUP3 DUP3 PUSH2 0xDE1 JUMP JUMPDEST POP POP JUMP JUMPDEST PUSH2 0x83E PUSH2 0xEEF JUMP JUMPDEST PUSH1 0x1 PUSH1 0x1 PUSH1 0xA0 SHL SUB DUP2 AND PUSH1 0x0 DUP2 DUP2 MSTORE PUSH1 0xB PUSH1 0x20 MSTORE PUSH1 0x40 DUP1 DUP3 KECCAK256 DUP1 SLOAD PUSH1 0xFF NOT AND SWAP1 SSTORE MLOAD PUSH32 0xC6711413797B8A562634E98C95D50E7619D39702ED5B82CE335DC93546C3A88C SWAP2 SWAP1 LOG2 POP JUMP JUMPDEST PUSH2 0x88F PUSH2 0xEEF JUMP JUMPDEST PUSH1 0x1 PUSH1 0x1 PUSH1 0xA0 SHL SUB DUP2 AND PUSH1 0x0 DUP2 DUP2 MSTORE PUSH1 0xB PUSH1 0x20 MSTORE PUSH1 0x40 DUP1 DUP3 KECCAK256 DUP1 SLOAD PUSH1 0xFF NOT AND PUSH1 0x1 OR SWAP1 SSTORE MLOAD PUSH32 0xE6BE4D6CC04EB0219337B22DB08C688969A9EC8E34D9A0A2BA38A114E050F1AE SWAP2 SWAP1 LOG2 POP JUMP JUMPDEST PUSH2 0x8E3 PUSH2 0xEEF JUMP JUMPDEST PUSH1 0x0 DUP2 PUSH2 0x8F0 DUP5 DUP7 PUSH2 0x15F8 JUMP JUMPDEST PUSH2 0x8FA SWAP2 SWAP1 PUSH2 0x15F8 JUMP JUMPDEST SWAP1 POP PUSH12 0x33B2E3C9FD0803CE8000000 DUP2 PUSH2 0x913 PUSH1 0x2 SLOAD SWAP1 JUMP JUMPDEST PUSH2 0x91D SWAP2 SWAP1 PUSH2 0x15F8 JUMP JUMPDEST GT ISZERO PUSH2 0x93B JUMPI PUSH1 0x40 MLOAD PUSH3 0x461BCD PUSH1 0xE5 SHL DUP2 MSTORE PUSH1 0x4 ADD PUSH2 0x638 SWAP1 PUSH2 0x160B JUMP JUMPDEST DUP4 ISZERO PUSH2 0x991 JUMPI DUP4 PUSH1 0x8 PUSH1 0x0 DUP3 DUP3 SLOAD PUSH2 0x953 SWAP2 SWAP1 PUSH2 0x15F8 JUMP JUMPDEST SWAP1 SWAP2 SSTORE POP POP PUSH1 0x40 MLOAD PUSH32 0x916A4334A2BA2CD24BC4917FEAB5A1AADC03FA81324D41E9B4593130BD3AE78C SWAP1 PUSH2 0x988 SWAP1 DUP7 SWAP1 PUSH2 0x16B0 JUMP JUMPDEST PUSH1 0x40 MLOAD DUP1 SWAP2 SUB SWAP1 LOG1 JUMPDEST DUP3 ISZERO PUSH2 0x9E7 JUMPI DUP3 PUSH1 0x9 PUSH1 0x0 DUP3 DUP3 SLOAD PUSH2 0x9A9 SWAP2 SWAP1 PUSH2 0x15F8 JUMP JUMPDEST SWAP1 SWAP2 SSTORE POP POP PUSH1 0x40 MLOAD PUSH32 0x916A4334A2BA2CD24BC4917FEAB5A1AADC03FA81324D41E9B4593130BD3AE78C SWAP1 PUSH2 0x9DE SWAP1 DUP6 SWAP1 PUSH2 0x16E8 JUMP JUMPDEST PUSH1 0x40 MLOAD DUP1 SWAP2 SUB SWAP1 LOG1 JUMPDEST DUP2 ISZERO PUSH2 0xA3D JUMPI DUP2 PUSH1 0xA PUSH1 0x0 DUP3 DUP3 SLOAD PUSH2 0x9FF SWAP2 SWAP1 PUSH2 0x15F8 JUMP JUMPDEST SWAP1 SWAP2 SSTORE POP POP PUSH1 0x40 MLOAD PUSH32 0x916A4334A2BA2CD24BC4917FEAB5A1AADC03FA81324D41E9B4593130BD3AE78C SWAP1 PUSH2 0xA34 SWAP1 DUP5 SWAP1 PUSH2 0x170F JUMP JUMPDEST PUSH1 0x40 MLOAD DUP1 SWAP2 SUB SWAP1 LOG1 JUMPDEST PUSH2 0xA47 ADDRESS DUP3 PUSH2 0xDE1 JUMP JUMPDEST POP POP POP POP JUMP JUMPDEST PUSH2 0xA55 PUSH2 0xEEF JUMP JUMPDEST PUSH2 0x76D PUSH1 0x0 PUSH2 0xFD6 JUMP JUMPDEST PUSH2 0xA6A DUP3 CALLER DUP4 PUSH2 0xE17 JUMP JUMPDEST PUSH2 0x832 DUP3 DUP3 PUSH2 0xFA0 JUMP JUMPDEST CALLER PUSH1 0x0 SWAP1 DUP2 MSTORE PUSH1 0xB PUSH1 0x20 MSTORE PUSH1 0x40 SWAP1 KECCAK256 SLOAD PUSH1 0xFF AND PUSH2 0xAA3 JUMPI PUSH1 0x40 MLOAD PUSH3 0x461BCD PUSH1 0xE5 SHL DUP2 MSTORE PUSH1 0x4 ADD PUSH2 0x638 SWAP1 PUSH2 0x15B2 JUMP JUMPDEST DUP1 PUSH1 0xA SLOAD LT ISZERO PUSH2 0xAF5 JUMPI PUSH1 0x40 MLOAD PUSH3 0x461BCD PUSH1 0xE5 SHL DUP2 MSTORE PUSH1 0x20 PUSH1 0x4 DUP3 ADD DUP2 SWAP1 MSTORE PUSH1 0x24 DUP3 ADD MSTORE PUSH32 0x496E73756666696369656E742063726561746F722072657761726420706F6F6C PUSH1 0x44 DUP3 ADD MSTORE PUSH1 0x64 ADD PUSH2 0x638 JUMP JUMPDEST PUSH12 0x33B2E3C9FD0803CE8000000 DUP2 PUSH2 0xB0C PUSH1 0x2 SLOAD SWAP1 JUMP JUMPDEST PUSH2 0xB16 SWAP2 SWAP1 PUSH2 0x15F8 JUMP JUMPDEST GT ISZERO PUSH2 0xB34 JUMPI PUSH1 0x40 MLOAD PUSH3 0x461BCD PUSH1 0xE5 SHL DUP2 MSTORE PUSH1 0x4 ADD PUSH2 0x638 SWAP1 PUSH2 0x160B JUMP JUMPDEST DUP1 PUSH1 0xA PUSH1 0x0 DUP3 DUP3 SLOAD PUSH2 0xB46 SWAP2 SWAP1 PUSH2 0x1637 JUMP JUMPDEST SWAP1 SWAP2 SSTORE POP PUSH2 0xB56 SWAP1 POP DUP3 DUP3 PUSH2 0xDE1 JUMP JUMPDEST DUP2 PUSH1 0x1 PUSH1 0x1 PUSH1 0xA0 SHL SUB AND PUSH32 0x765F02A4009BBABEB5BCACB42308293AB54FA68B299D9CF67BC945E839BE9660 DUP3 PUSH1 0x40 MLOAD PUSH2 0x72D SWAP2 SWAP1 PUSH2 0x1736 JUMP JUMPDEST PUSH2 0xB97 PUSH2 0xEEF JUMP JUMPDEST PUSH2 0x76D PUSH2 0x1028 JUMP JUMPDEST PUSH2 0xBA7 PUSH2 0xEEF JUMP JUMPDEST DUP3 DUP2 EQ PUSH2 0xBEF JUMPI PUSH1 0x40 MLOAD PUSH3 0x461BCD PUSH1 0xE5 SHL DUP2 MSTORE PUSH1 0x20 PUSH1 0x4 DUP3 ADD MSTORE PUSH1 0x16 PUSH1 0x24 DUP3 ADD MSTORE PUSH22 0x82E4E4C2F2E640D8CADCCEE8D040DAD2E6DAC2E8C6D PUSH1 0x53 SHL PUSH1 0x44 DUP3 ADD MSTORE PUSH1 0x64 ADD PUSH2 0x638 JUMP JUMPDEST PUSH1 0x0 JUMPDEST DUP4 DUP2 LT ISZERO PUSH2 0xC55 JUMPI PUSH2 0xC42 DUP6 DUP6 DUP4 DUP2 DUP2 LT PUSH2 0xC0F JUMPI PUSH2 0xC0F PUSH2 0x1763 JUMP JUMPDEST SWAP1 POP PUSH1 0x20 MUL ADD PUSH1 0x20 DUP2 ADD SWAP1 PUSH2 0xC24 SWAP2 SWAP1 PUSH2 0x13ED JUMP JUMPDEST DUP5 DUP5 DUP5 DUP2 DUP2 LT PUSH2 0xC36 JUMPI PUSH2 0xC36 PUSH2 0x1763 JUMP JUMPDEST SWAP1 POP PUSH1 0x20 MUL ADD CALLDATALOAD PUSH2 0xC6B JUMP JUMPDEST POP DUP1 PUSH2 0xC4D DUP2 PUSH2 0x1779 JUMP JUMPDEST SWAP2 POP POP PUSH2 0xBF2 JUMP JUMPDEST POP POP POP POP POP JUMP JUMPDEST PUSH1 0x60 PUSH1 0x4 DUP1 SLOAD PUSH2 0x56C SWAP1 PUSH2 0x1578 JUMP JUMPDEST PUSH1 0x0 CALLER PUSH2 0x5FD DUP2 DUP6 DUP6 PUSH2 0xE90 JUMP JUMPDEST CALLER PUSH1 0x0 SWAP1 DUP2 MSTORE PUSH1 0xB PUSH1 0x20 MSTORE PUSH1 0x40 SWAP1 KECCAK256 SLOAD PUSH1 0xFF AND PUSH2 0xCA8 JUMPI PUSH1 0x40 MLOAD PUSH3 0x461BCD PUSH1 0xE5 SHL DUP2 MSTORE PUSH1 0x4 ADD PUSH2 0x638 SWAP1 PUSH2 0x15B2 JUMP JUMPDEST DUP1 PUSH1 0x8 SLOAD LT ISZERO PUSH2 0xCFA JUMPI PUSH1 0x40 MLOAD PUSH3 0x461BCD PUSH1 0xE5 SHL DUP2 MSTORE PUSH1 0x20 PUSH1 0x4 DUP3 ADD MSTORE PUSH1 0x1D PUSH1 0x24 DUP3 ADD MSTORE PUSH32 0x496E73756666696369656E7420706C61792072657761726420706F6F6C000000 PUSH1 0x44 DUP3 ADD MSTORE PUSH1 0x64 ADD PUSH2 0x638 JUMP JUMPDEST PUSH12 0x33B2E3C9FD0803CE8000000 DUP2 PUSH2 0xD11 PUSH1 0x2 SLOAD SWAP1 JUMP JUMPDEST PUSH2 0xD1B SWAP2 SWAP1 PUSH2 0x15F8 JUMP JUMPDEST GT ISZERO PUSH2 0xD39 JUMPI PUSH1 0x40 MLOAD PUSH3 0x461BCD PUSH1 0xE5 SHL DUP2 MSTORE PUSH1 0x4 ADD PUSH2 0x638 SWAP1 PUSH2 0x160B JUMP JUMPDEST DUP1 PUSH1 0x8 PUSH1 0x0 DUP3 DUP3 SLOAD PUSH2 0xD4B SWAP2 SWAP1 PUSH2 0x1637 JUMP JUMPDEST SWAP1 SWAP2 SSTORE POP PUSH2 0xD5B SWAP1 POP DUP3 DUP3 PUSH2 0xDE1 JUMP JUMPDEST DUP2 PUSH1 0x1 PUSH1 0x1 PUSH1 0xA0 SHL SUB AND PUSH32 0x765F02A4009BBABEB5BCACB42308293AB54FA68B299D9CF67BC945E839BE9660 DUP3 PUSH1 0x40 MLOAD PUSH2 0x72D SWAP2 SWAP1 PUSH2 0x1792 JUMP JUMPDEST PUSH2 0xD9C PUSH2 0xEEF JUMP JUMPDEST PUSH1 0x1 PUSH1 0x1 PUSH1 0xA0 SHL SUB DUP2 AND PUSH2 0xDC6 JUMPI PUSH1 0x40 MLOAD PUSH4 0x1E4FBDF7 PUSH1 0xE0 SHL DUP2 MSTORE PUSH1 0x0 PUSH1 0x4 DUP3 ADD MSTORE PUSH1 0x24 ADD PUSH2 0x638 JUMP JUMPDEST PUSH2 0x7DE DUP2 PUSH2 0xFD6 JUMP JUMPDEST PUSH2 0xDDC DUP4 DUP4 DUP4 PUSH1 0x1 PUSH2 0x106B JUMP JUMPDEST POP POP POP JUMP JUMPDEST PUSH1 0x1 PUSH1 0x1 PUSH1 0xA0 SHL SUB DUP3 AND PUSH2 0xE0B JUMPI PUSH1 0x40 MLOAD PUSH4 0xEC442F05 PUSH1 0xE0 SHL DUP2 MSTORE PUSH1 0x0 PUSH1 0x4 DUP3 ADD MSTORE PUSH1 0x24 ADD PUSH2 0x638 JUMP JUMPDEST PUSH2 0x832 PUSH1 0x0 DUP4 DUP4 PUSH2 0x1140 JUMP JUMPDEST PUSH1 0x1 PUSH1 0x1 PUSH1 0xA0 SHL SUB DUP4 DUP2 AND PUSH1 0x0 SWAP1 DUP2 MSTORE PUSH1 0x1 PUSH1 0x20 SWAP1 DUP2 MSTORE PUSH1 0x40 DUP1 DUP4 KECCAK256 SWAP4 DUP7 AND DUP4 MSTORE SWAP3 SWAP1 MSTORE KECCAK256 SLOAD PUSH1 0x0 NOT DUP2 LT ISZERO PUSH2 0xA47 JUMPI DUP2 DUP2 LT ISZERO PUSH2 0xE81 JUMPI PUSH1 0x40 MLOAD PUSH4 0x7DC7A0D9 PUSH1 0xE1 SHL DUP2 MSTORE PUSH1 0x1 PUSH1 0x1 PUSH1 0xA0 SHL SUB DUP5 AND PUSH1 0x4 DUP3 ADD MSTORE PUSH1 0x24 DUP2 ADD DUP3 SWAP1 MSTORE PUSH1 0x44 DUP2 ADD DUP4 SWAP1 MSTORE PUSH1 0x64 ADD PUSH2 0x638 JUMP JUMPDEST PUSH2 0xA47 DUP5 DUP5 DUP5 DUP5 SUB PUSH1 0x0 PUSH2 0x106B JUMP JUMPDEST PUSH1 0x1 PUSH1 0x1 PUSH1 0xA0 SHL SUB DUP4 AND PUSH2 0xEBA JUMPI PUSH1 0x40 MLOAD PUSH4 0x4B637E8F PUSH1 0xE1 SHL DUP2 MSTORE PUSH1 0x0 PUSH1 0x4 DUP3 ADD MSTORE PUSH1 0x24 ADD PUSH2 0x638 JUMP JUMPDEST PUSH1 0x1 PUSH1 0x1 PUSH1 0xA0 SHL SUB DUP3 AND PUSH2 0xEE4 JUMPI PUSH1 0x40 MLOAD PUSH4 0xEC442F05 PUSH1 0xE0 SHL DUP2 MSTORE PUSH1 0x0 PUSH1 0x4 DUP3 ADD MSTORE PUSH1 0x24 ADD PUSH2 0x638 JUMP JUMPDEST PUSH2 0xDDC DUP4 DUP4 DUP4 PUSH2 0x1140 JUMP JUMPDEST PUSH1 0x5 SLOAD PUSH1 0x1 PUSH1 0x1 PUSH1 0xA0 SHL SUB AND CALLER EQ PUSH2 0x76D JUMPI PUSH1 0x40 MLOAD PUSH4 0x118CDAA7 PUSH1 0xE0 SHL DUP2 MSTORE CALLER PUSH1 0x4 DUP3 ADD MSTORE PUSH1 0x24 ADD PUSH2 0x638 JUMP JUMPDEST PUSH2 0xF24 PUSH2 0x119E JUMP JUMPDEST PUSH1 0x5 DUP1 SLOAD PUSH1 0xFF PUSH1 0xA0 SHL NOT AND SWAP1 SSTORE PUSH32 0x5DB9EE0A495BF2E6FF9C91A7834C1BA4FDD244A5E8AA4E537BD38AEAE4B073AA CALLER JUMPDEST PUSH1 0x40 MLOAD PUSH1 0x1 PUSH1 0x1 PUSH1 0xA0 SHL SUB SWAP1 SWAP2 AND DUP2 MSTORE PUSH1 0x20 ADD PUSH1 0x40 MLOAD DUP1 SWAP2 SUB SWAP1 LOG1 JUMP JUMPDEST PUSH1 0x0 PUSH2 0x3E8 PUSH2 0xF7F PUSH1 0x2 SLOAD SWAP1 JUMP JUMPDEST PUSH2 0xF89 SWAP2 SWAP1 PUSH2 0x168E JUMP JUMPDEST PUSH2 0xF9B SWAP1 PUSH8 0xDE0B6B3A7640000 PUSH2 0x1677 JUMP JUMPDEST SWAP1 POP SWAP1 JUMP JUMPDEST PUSH1 0x1 PUSH1 0x1 PUSH1 0xA0 SHL SUB DUP3 AND PUSH2 0xFCA JUMPI PUSH1 0x40 MLOAD PUSH4 0x4B637E8F PUSH1 0xE1 SHL DUP2 MSTORE PUSH1 0x0 PUSH1 0x4 DUP3 ADD MSTORE PUSH1 0x24 ADD PUSH2 0x638 JUMP JUMPDEST PUSH2 0x832 DUP3 PUSH1 0x0 DUP4 PUSH2 0x1140 JUMP JUMPDEST PUSH1 0x5 DUP1 SLOAD PUSH1 0x1 PUSH1 0x1 PUSH1 0xA0 SHL SUB DUP4 DUP2 AND PUSH1 0x1 PUSH1 0x1 PUSH1 0xA0 SHL SUB NOT DUP4 AND DUP2 OR SWAP1 SWAP4 SSTORE PUSH1 0x40 MLOAD SWAP2 AND SWAP2 SWAP1 DUP3 SWAP1 PUSH32 0x8BE0079C531659141344CD1FD0A4F28419497F9722A3DAAFE3B4186F6B6457E0 SWAP1 PUSH1 0x0 SWAP1 LOG3 POP POP JUMP JUMPDEST PUSH2 0x1030 PUSH2 0x11C8 JUMP JUMPDEST PUSH1 0x5 DUP1 SLOAD PUSH1 0xFF PUSH1 0xA0 SHL NOT AND PUSH1 0x1 PUSH1 0xA0 SHL OR SWAP1 SSTORE PUSH32 0x62E78CEA01BEE320CD4E420270B5EA74000D11B0C9F74754EBDBFC544B05A258 PUSH2 0xF54 CALLER SWAP1 JUMP JUMPDEST PUSH1 0x1 PUSH1 0x1 PUSH1 0xA0 SHL SUB DUP5 AND PUSH2 0x1095 JUMPI PUSH1 0x40 MLOAD PUSH4 0xE602DF05 PUSH1 0xE0 SHL DUP2 MSTORE PUSH1 0x0 PUSH1 0x4 DUP3 ADD MSTORE PUSH1 0x24 ADD PUSH2 0x638 JUMP JUMPDEST PUSH1 0x1 PUSH1 0x1 PUSH1 0xA0 SHL SUB DUP4 AND PUSH2 0x10BF JUMPI PUSH1 0x40 MLOAD PUSH4 0x4A1406B1 PUSH1 0xE1 SHL DUP2 MSTORE PUSH1 0x0 PUSH1 0x4 DUP3 ADD MSTORE PUSH1 0x24 ADD PUSH2 0x638 JUMP JUMPDEST PUSH1 0x1 PUSH1 0x1 PUSH1 0xA0 SHL SUB DUP1 DUP6 AND PUSH1 0x0 SWAP1 DUP2 MSTORE PUSH1 0x1 PUSH1 0x20 SWAP1 DUP2 MSTORE PUSH1 0x40 DUP1 DUP4 KECCAK256 SWAP4 DUP8 AND DUP4 MSTORE SWAP3 SWAP1 MSTORE KECCAK256 DUP3 SWAP1 SSTORE DUP1 ISZERO PUSH2 0xA47 JUMPI DUP3 PUSH1 0x1 PUSH1 0x1 PUSH1 0xA0 SHL SUB AND DUP5 PUSH1 0x1 PUSH1 0x1 PUSH1 0xA0 SHL SUB AND PUSH32 0x8C5BE1E5EBEC7D5BD14F71427D1E84F3DD0314C0F7B2291E5B200AC8C7C3B925 DUP5 PUSH1 0x40 MLOAD PUSH2 0x1132 SWAP2 DUP2 MSTORE PUSH1 0x20 ADD SWAP1 JUMP JUMPDEST PUSH1 0x40 MLOAD DUP1 SWAP2 SUB SWAP1 LOG3 POP POP POP POP JUMP JUMPDEST PUSH1 0x5 SLOAD PUSH1 0x1 PUSH1 0xA0 SHL SWAP1 DIV PUSH1 0xFF AND ISZERO PUSH2 0x1193 JUMPI PUSH1 0x40 MLOAD PUSH3 0x461BCD PUSH1 0xE5 SHL DUP2 MSTORE PUSH1 0x20 PUSH1 0x4 DUP3 ADD MSTORE PUSH1 0x16 PUSH1 0x24 DUP3 ADD MSTORE PUSH22 0x151BDAD95B881D1C985B9CD9995C9CC81C185D5CD959 PUSH1 0x52 SHL PUSH1 0x44 DUP3 ADD MSTORE PUSH1 0x64 ADD PUSH2 0x638 JUMP JUMPDEST PUSH2 0xDDC DUP4 DUP4 DUP4 PUSH2 0x11F3 JUMP JUMPDEST PUSH1 0x5 SLOAD PUSH1 0x1 PUSH1 0xA0 SHL SWAP1 DIV PUSH1 0xFF AND PUSH2 0x76D JUMPI PUSH1 0x40 MLOAD PUSH4 0x8DFC202B PUSH1 0xE0 SHL DUP2 MSTORE PUSH1 0x4 ADD PUSH1 0x40 MLOAD DUP1 SWAP2 SUB SWAP1 REVERT JUMPDEST PUSH1 0x5 SLOAD PUSH1 0x1 PUSH1 0xA0 SHL SWAP1 DIV PUSH1 0xFF AND ISZERO PUSH2 0x76D JUMPI PUSH1 0x40 MLOAD PUSH4 0xD93C0665 PUSH1 0xE0 SHL DUP2 MSTORE PUSH1 0x4 ADD PUSH1 0x40 MLOAD DUP1 SWAP2 SUB SWAP1 REVERT JUMPDEST PUSH1 0x1 PUSH1 0x1 PUSH1 0xA0 SHL SUB DUP4 AND PUSH2 0x121E JUMPI DUP1 PUSH1 0x2 PUSH1 0x0 DUP3 DUP3 SLOAD PUSH2 0x1213 SWAP2 SWAP1 PUSH2 0x15F8 JUMP JUMPDEST SWAP1 SWAP2 SSTORE POP PUSH2 0x1290 SWAP1 POP JUMP JUMPDEST PUSH1 0x1 PUSH1 0x1 PUSH1 0xA0 SHL SUB DUP4 AND PUSH1 0x0 SWAP1 DUP2 MSTORE PUSH1 0x20 DUP2 SWAP1 MSTORE PUSH1 0x40 SWAP1 KECCAK256 SLOAD DUP2 DUP2 LT ISZERO PUSH2 0x1271 JUMPI PUSH1 0x40 MLOAD PUSH4 0x391434E3 PUSH1 0xE2 SHL DUP2 MSTORE PUSH1 0x1 PUSH1 0x1 PUSH1 0xA0 SHL SUB DUP6 AND PUSH1 0x4 DUP3 ADD MSTORE PUSH1 0x24 DUP2 ADD DUP3 SWAP1 MSTORE PUSH1 0x44 DUP2 ADD DUP4 SWAP1 MSTORE PUSH1 0x64 ADD PUSH2 0x638 JUMP JUMPDEST PUSH1 0x1 PUSH1 0x1 PUSH1 0xA0 SHL SUB DUP5 AND PUSH1 0x0 SWAP1 DUP2 MSTORE PUSH1 0x20 DUP2 SWAP1 MSTORE PUSH1 0x40 SWAP1 KECCAK256 SWAP1 DUP3 SWAP1 SUB SWAP1 SSTORE JUMPDEST PUSH1 0x1 PUSH1 0x1 PUSH1 0xA0 SHL SUB DUP3 AND PUSH2 0x12AC JUMPI PUSH1 0x2 DUP1 SLOAD DUP3 SWAP1 SUB SWAP1 SSTORE PUSH2 0x12CB JUMP JUMPDEST PUSH1 0x1 PUSH1 0x1 PUSH1 0xA0 SHL SUB DUP3 AND PUSH1 0x0 SWAP1 DUP2 MSTORE PUSH1 0x20 DUP2 SWAP1 MSTORE PUSH1 0x40 SWAP1 KECCAK256 DUP1 SLOAD DUP3 ADD SWAP1 SSTORE JUMPDEST DUP2 PUSH1 0x1 PUSH1 0x1 PUSH1 0xA0 SHL SUB AND DUP4 PUSH1 0x1 PUSH1 0x1 PUSH1 0xA0 SHL SUB AND PUSH32 0xDDF252AD1BE2C89B69C2B068FC378DAA952BA7F163C4A11628F55A4DF523B3EF DUP4 PUSH1 0x40 MLOAD PUSH2 0x1310 SWAP2 DUP2 MSTORE PUSH1 0x20 ADD SWAP1 JUMP JUMPDEST PUSH1 0x40 MLOAD DUP1 SWAP2 SUB SWAP1 LOG3 POP POP POP JUMP JUMPDEST PUSH1 0x0 PUSH1 0x20 DUP1 DUP4 MSTORE DUP4 MLOAD DUP1 DUP3 DUP6 ADD MSTORE PUSH1 0x0 JUMPDEST DUP2 DUP2 LT ISZERO PUSH2 0x134A JUMPI DUP6 DUP2 ADD DUP4 ADD MLOAD DUP6 DUP3 ADD PUSH1 0x40 ADD MSTORE DUP3 ADD PUSH2 0x132E JUMP JUMPDEST POP PUSH1 0x0 PUSH1 0x40 DUP3 DUP7 ADD ADD MSTORE PUSH1 0x40 PUSH1 0x1F NOT PUSH1 0x1F DUP4 ADD AND DUP6 ADD ADD SWAP3 POP POP POP SWAP3 SWAP2 POP POP JUMP JUMPDEST DUP1 CALLDATALOAD PUSH1 0x1 PUSH1 0x1 PUSH1 0xA0 SHL SUB DUP2 AND DUP2 EQ PUSH2 0x1382 JUMPI PUSH1 0x0 DUP1 REVERT JUMPDEST SWAP2 SWAP1 POP JUMP JUMPDEST PUSH1 0x0 DUP1 PUSH1 0x40 DUP4 DUP6 SUB SLT ISZERO PUSH2 0x139A JUMPI PUSH1 0x0 DUP1 REVERT JUMPDEST PUSH2 0x13A3 DUP4 PUSH2 0x136B JUMP JUMPDEST SWAP5 PUSH1 0x20 SWAP4 SWAP1 SWAP4 ADD CALLDATALOAD SWAP4 POP POP POP JUMP JUMPDEST PUSH1 0x0 DUP1 PUSH1 0x0 PUSH1 0x60 DUP5 DUP7 SUB SLT ISZERO PUSH2 0x13C6 JUMPI PUSH1 0x0 DUP1 REVERT JUMPDEST PUSH2 0x13CF DUP5 PUSH2 0x136B JUMP JUMPDEST SWAP3 POP PUSH2 0x13DD PUSH1 0x20 DUP6 ADD PUSH2 0x136B JUMP JUMPDEST SWAP2 POP PUSH1 0x40 DUP5 ADD CALLDATALOAD SWAP1 POP SWAP3 POP SWAP3 POP SWAP3 JUMP JUMPDEST PUSH1 0x0 PUSH1 0x20 DUP3 DUP5 SUB SLT ISZERO PUSH2 0x13FF JUMPI PUSH1 0x0 DUP1 REVERT JUMPDEST PUSH2 0x1408 DUP3 PUSH2 0x136B JUMP JUMPDEST SWAP4 SWAP3 POP POP POP JUMP JUMPDEST PUSH1 0x0 DUP1 PUSH1 0x0 DUP1 PUSH1 0x80 DUP6 DUP8 SUB SLT ISZERO PUSH2 0x1425 JUMPI PUSH1 0x0 DUP1 REVERT JUMPDEST PUSH2 0x142E DUP6 PUSH2 0x136B JUMP JUMPDEST SWAP7 PUSH1 0x20 DUP7 ADD CALLDATALOAD SWAP7 POP PUSH1 0x40 DUP7 ADD CALLDATALOAD SWAP6 PUSH1 0x60 ADD CALLDATALOAD SWAP5 POP SWAP3 POP POP POP JUMP JUMPDEST PUSH1 0x0 PUSH1 0x20 DUP3 DUP5 SUB SLT ISZERO PUSH2 0x145A JUMPI PUSH1 0x0 DUP1 REVERT JUMPDEST POP CALLDATALOAD SWAP2 SWAP1 POP JUMP JUMPDEST PUSH1 0x0 DUP1 PUSH1 0x0 PUSH1 0x60 DUP5 DUP7 SUB SLT ISZERO PUSH2 0x1476 JUMPI PUSH1 0x0 DUP1 REVERT JUMPDEST POP POP DUP2 CALLDATALOAD SWAP4 PUSH1 0x20 DUP4 ADD CALLDATALOAD SWAP4 POP PUSH1 0x40 SWAP1 SWAP3 ADD CALLDATALOAD SWAP2 SWAP1 POP JUMP JUMPDEST PUSH1 0x0 DUP1 DUP4 PUSH1 0x1F DUP5 ADD SLT PUSH2 0x149F JUMPI PUSH1 0x0 DUP1 REVERT JUMPDEST POP DUP2 CALLDATALOAD PUSH8 0xFFFFFFFFFFFFFFFF DUP2 GT ISZERO PUSH2 0x14B7 JUMPI PUSH1 0x0 DUP1 REVERT JUMPDEST PUSH1 0x20 DUP4 ADD SWAP2 POP DUP4 PUSH1 0x20 DUP3 PUSH1 0x5 SHL DUP6 ADD ADD GT ISZERO PUSH2 0x14D2 JUMPI PUSH1 0x0 DUP1 REVERT JUMPDEST SWAP3 POP SWAP3 SWAP1 POP JUMP JUMPDEST PUSH1 0x0 DUP1 PUSH1 0x0 DUP1 PUSH1 0x40 DUP6 DUP8 SUB SLT ISZERO PUSH2 0x14EF JUMPI PUSH1 0x0 DUP1 REVERT JUMPDEST DUP5 CALLDATALOAD PUSH8 0xFFFFFFFFFFFFFFFF DUP1 DUP3 GT ISZERO PUSH2 0x1507 JUMPI PUSH1 0x0 DUP1 REVERT JUMPDEST PUSH2 0x1513 DUP9 DUP4 DUP10 ADD PUSH2 0x148D JUMP JUMPDEST SWAP1 SWAP7 POP SWAP5 POP PUSH1 0x20 DUP8 ADD CALLDATALOAD SWAP2 POP DUP1 DUP3 GT ISZERO PUSH2 0x152C JUMPI PUSH1 0x0 DUP1 REVERT JUMPDEST POP PUSH2 0x1539 DUP8 DUP3 DUP9 ADD PUSH2 0x148D JUMP JUMPDEST SWAP6 SWAP9 SWAP5 SWAP8 POP SWAP6 POP POP POP POP JUMP JUMPDEST PUSH1 0x0 DUP1 PUSH1 0x40 DUP4 DUP6 SUB SLT ISZERO PUSH2 0x1558 JUMPI PUSH1 0x0 DUP1 REVERT JUMPDEST PUSH2 0x1561 DUP4 PUSH2 0x136B JUMP JUMPDEST SWAP2 POP PUSH2 0x156F PUSH1 0x20 DUP5 ADD PUSH2 0x136B JUMP JUMPDEST SWAP1 POP SWAP3 POP SWAP3 SWAP1 POP JUMP JUMPDEST PUSH1 0x1 DUP2 DUP2 SHR SWAP1 DUP3 AND DUP1 PUSH2 0x158C JUMPI PUSH1 0x7F DUP3 AND SWAP2 POP JUMPDEST PUSH1 0x20 DUP3 LT DUP2 SUB PUSH2 0x15AC JUMPI PUSH4 0x4E487B71 PUSH1 0xE0 SHL PUSH1 0x0 MSTORE PUSH1 0x22 PUSH1 0x4 MSTORE PUSH1 0x24 PUSH1 0x0 REVERT JUMPDEST POP SWAP2 SWAP1 POP JUMP JUMPDEST PUSH1 0x20 DUP1 DUP3 MSTORE PUSH1 0x16 SWAP1 DUP3 ADD MSTORE PUSH22 0x139BDD08185D5D1A1BDC9A5E9959081D1BC81B5A5B9D PUSH1 0x52 SHL PUSH1 0x40 DUP3 ADD MSTORE PUSH1 0x60 ADD SWAP1 JUMP JUMPDEST PUSH4 0x4E487B71 PUSH1 0xE0 SHL PUSH1 0x0 MSTORE PUSH1 0x11 PUSH1 0x4 MSTORE PUSH1 0x24 PUSH1 0x0 REVERT JUMPDEST DUP1 DUP3 ADD DUP1 DUP3 GT ISZERO PUSH2 0x603 JUMPI PUSH2 0x603 PUSH2 0x15E2 JUMP JUMPDEST PUSH1 0x20 DUP1 DUP3 MSTORE PUSH1 0x12 SWAP1 DUP3 ADD MSTORE PUSH18 0x45786365656473206D617820737570706C79 PUSH1 0x70 SHL PUSH1 0x40 DUP3 ADD MSTORE PUSH1 0x60 ADD SWAP1 JUMP JUMPDEST DUP2 DUP2 SUB DUP2 DUP2 GT ISZERO PUSH2 0x603 JUMPI PUSH2 0x603 PUSH2 0x15E2 JUMP JUMPDEST DUP2 DUP2 MSTORE PUSH1 0x40 PUSH1 0x20 DUP3 ADD MSTORE PUSH1 0x0 PUSH2 0x1408 PUSH1 0x40 DUP4 ADD PUSH1 0x7 DUP2 MSTORE PUSH7 0x5374616B696E67 PUSH1 0xC8 SHL PUSH1 0x20 DUP3 ADD MSTORE PUSH1 0x40 ADD SWAP1 JUMP JUMPDEST DUP1 DUP3 MUL DUP2 ISZERO DUP3 DUP3 DIV DUP5 EQ OR PUSH2 0x603 JUMPI PUSH2 0x603 PUSH2 0x15E2 JUMP JUMPDEST PUSH1 0x0 DUP3 PUSH2 0x16AB JUMPI PUSH4 0x4E487B71 PUSH1 0xE0 SHL PUSH1 0x0 MSTORE PUSH1 0x12 PUSH1 0x4 MSTORE PUSH1 0x24 PUSH1 0x0 REVERT JUMPDEST POP DIV SWAP1 JUMP JUMPDEST PUSH1 0x40 DUP2 MSTORE PUSH1 0x0 PUSH2 0x16DA PUSH1 0x40 DUP4 ADD PUSH1 0xA DUP2 MSTORE PUSH10 0x283630BCAA37A2B0B937 PUSH1 0xB1 SHL PUSH1 0x20 DUP3 ADD MSTORE PUSH1 0x40 ADD SWAP1 JUMP JUMPDEST SWAP1 POP DUP3 PUSH1 0x20 DUP4 ADD MSTORE SWAP3 SWAP2 POP POP JUMP JUMPDEST PUSH1 0x40 DUP2 MSTORE PUSH1 0x0 PUSH2 0x16DA PUSH1 0x40 DUP4 ADD PUSH1 0x7 DUP2 MSTORE PUSH7 0x5374616B696E67 PUSH1 0xC8 SHL PUSH1 0x20 DUP3 ADD MSTORE PUSH1 0x40 ADD SWAP1 JUMP JUMPDEST PUSH1 0x40 DUP2 MSTORE PUSH1 0x0 PUSH2 0x16DA PUSH1 0x40 DUP4 ADD PUSH1 0x7 DUP2 MSTORE PUSH7 0x21B932B0BA37B9 PUSH1 0xC9 SHL PUSH1 0x20 DUP3 ADD MSTORE PUSH1 0x40 ADD SWAP1 JUMP JUMPDEST DUP2 DUP2 MSTORE PUSH1 0x40 PUSH1 0x20 DUP3 ADD MSTORE PUSH1 0x0 PUSH2 0x1408 PUSH1 0x40 DUP4 ADD PUSH1 0x7 DUP2 MSTORE PUSH7 0x21B932B0BA37B9 PUSH1 0xC9 SHL PUSH1 0x20 DUP3 ADD MSTORE PUSH1 0x40 ADD SWAP1 JUMP JUMPDEST PUSH4 0x4E487B71 PUSH1 0xE0 SHL PUSH1 0x0 MSTORE PUSH1 0x32 PUSH1 0x4 MSTORE PUSH1 0x24 PUSH1 0x0 REVERT JUMPDEST PUSH1 0x0 PUSH1 0x1 DUP3 ADD PUSH2 0x178B JUMPI PUSH2 0x178B PUSH2 0x15E2 JUMP JUMPDEST POP PUSH1 0x1 ADD SWAP1 JUMP JUMPDEST DUP2 DUP2 MSTORE PUSH1 0x40 PUSH1 0x20 DUP3 ADD MSTORE PUSH1 0x0 PUSH2 0x1408 PUSH1 0x40 DUP4 ADD PUSH1 0xA DUP2 MSTORE PUSH10 0x283630BCAA37A2B0B937 PUSH1 0xB1 SHL PUSH1 0x20 DUP3 ADD MSTORE PUSH1 0x40 ADD SWAP1 JUMP INVALID LOG2 PUSH5 0x6970667358 0x22 SLT KECCAK256 JUMPDEST 0xF8 POP PUSH2 0xD44A BALANCE LOG3 SIGNEXTEND SWAP13 0xDB PREVRANDAO 0x22 SGT SLOAD 0xE7 SWAP2 REVERT SLT 0xC3 MLOAD 0xEB SWAP16 0x2D PUSH29 0x7C74E10FDFA63964736F6C634300081400330000000000000000000000 "},"methodIdentifiers":{"COMMUNITY_REWARDS()":"1cfe31c2","ECOSYSTEM_FUND()":"983c44d6","INITIAL_SUPPLY()":"2ff2e9dc","LIQUIDITY_POOL()":"2cca9dfd","MAX_SUPPLY()":"32cb6b0c","TEAM_ALLOCATION()":"fd99cbed","addAuthorizedMinter(address)":"5f710f5c","allowance(address,address)":"dd62ed3e","approve(address,uint256)":"095ea7b3","authorizedMinters(address)":"aa2fe91b","balanceOf(address)":"70a08231","batchTransfer(address[],uint256[])":"88d695b2","burn(uint256)":"42966c68","burnFrom(address,uint256)":"79cc6790","calculateDynamicReward(address,uint256,uint256,uint256)":"41f844c6","creatorRewardPool()":"b1e76367","decimals()":"313ce567","emergencyMint(address,uint256)":"43785dc9","getRewardPools()":"e447de17","lastRewardClaim(address)":"d8ad5231","mintCreatorReward(address,uint256)":"7ccfd71e","mintPlayReward(address,uint256)":"c00b40e1","mintStakingReward(address,uint256)":"1bd2a15d","name()":"06fdde03","owner()":"8da5cb5b","pause()":"8456cb59","paused()":"5c975abb","playToEarnPool()":"db013511","refillRewardPools(uint256,uint256,uint256)":"70d884da","removeAuthorizedMinter(address)":"475ae039","renounceOwnership()":"715018a6","stakingRewardPool()":"3b4b4d8d","symbol()":"95d89b41","teamVesting(address)":"2b3e8eb3","totalSupply()":"18160ddd","transfer(address,uint256)":"a9059cbb","transferFrom(address,address,uint256)":"23b872dd","transferOwnership(address)":"f2fde38b","unpause()":"3f4ba83a"}}}}}