{
  "_format": "hh-sol-artifact-1",
  "contractName": "GameNFT",
  "sourceName": "contracts/GameNFT.sol",
  "abi": [
    {
      "inputs": [
        {
          "internalType": "address",
          "name": "_platformToken",
          "type": "address"
        },
        {
          "internalType": "string",
          "name": "_name",
          "type": "string"
        },
        {
          "internalType": "string",
          "name": "_symbol",
          "type": "string"
        }
      ],
      "stateMutability": "nonpayable",
      "type": "constructor"
    },
    {
      "inputs": [
        {
          "internalType": "address",
          "name": "sender",
          "type": "address"
        },
        {
          "internalType": "uint256",
          "name": "tokenId",
          "type": "uint256"
        },
        {
          "internalType": "address",
          "name": "owner",
          "type": "address"
        }
      ],
      "name": "ERC721IncorrectOwner",
      "type": "error"
    },
    {
      "inputs": [
        {
          "internalType": "address",
          "name": "operator",
          "type": "address"
        },
        {
          "internalType": "uint256",
          "name": "tokenId",
          "type": "uint256"
        }
      ],
      "name": "ERC721InsufficientApproval",
      "type": "error"
    },
    {
      "inputs": [
        {
          "internalType": "address",
          "name": "approver",
          "type": "address"
        }
      ],
      "name": "ERC721InvalidApprover",
      "type": "error"
    },
    {
      "inputs": [
        {
          "internalType": "address",
          "name": "operator",
          "type": "address"
        }
      ],
      "name": "ERC721InvalidOperator",
      "type": "error"
    },
    {
      "inputs": [
        {
          "internalType": "address",
          "name": "owner",
          "type": "address"
        }
      ],
      "name": "ERC721InvalidOwner",
      "type": "error"
    },
    {
      "inputs": [
        {
          "internalType": "address",
          "name": "receiver",
          "type": "address"
        }
      ],
      "name": "ERC721InvalidReceiver",
      "type": "error"
    },
    {
      "inputs": [
        {
          "internalType": "address",
          "name": "sender",
          "type": "address"
        }
      ],
      "name": "ERC721InvalidSender",
      "type": "error"
    },
    {
      "inputs": [
        {
          "internalType": "uint256",
          "name": "tokenId",
          "type": "uint256"
        }
      ],
      "name": "ERC721NonexistentToken",
      "type": "error"
    },
    {
      "inputs": [
        {
          "internalType": "address",
          "name": "owner",
          "type": "address"
        }
      ],
      "name": "OwnableInvalidOwner",
      "type": "error"
    },
    {
      "inputs": [
        {
          "internalType": "address",
          "name": "account",
          "type": "address"
        }
      ],
      "name": "OwnableUnauthorizedAccount",
      "type": "error"
    },
    {
      "inputs": [],
      "name": "ReentrancyGuardReentrantCall",
      "type": "error"
    },
    {
      "anonymous": false,
      "inputs": [
        {
          "indexed": true,
          "internalType": "address",
          "name": "owner",
          "type": "address"
        },
        {
          "indexed": true,
          "internalType": "address",
          "name": "approved",
          "type": "address"
        },
        {
          "indexed": true,
          "internalType": "uint256",
          "name": "tokenId",
          "type": "uint256"
        }
      ],
      "name": "Approval",
      "type": "event"
    },
    {
      "anonymous": false,
      "inputs": [
        {
          "indexed": true,
          "internalType": "address",
          "name": "owner",
          "type": "address"
        },
        {
          "indexed": true,
          "internalType": "address",
          "name": "operator",
          "type": "address"
        },
        {
          "indexed": false,
          "internalType": "bool",
          "name": "approved",
          "type": "bool"
        }
      ],
      "name": "ApprovalForAll",
      "type": "event"
    },
    {
      "anonymous": false,
      "inputs": [
        {
          "indexed": false,
          "internalType": "uint256",
          "name": "_fromTokenId",
          "type": "uint256"
        },
        {
          "indexed": false,
          "internalType": "uint256",
          "name": "_toTokenId",
          "type": "uint256"
        }
      ],
      "name": "BatchMetadataUpdate",
      "type": "event"
    },
    {
      "anonymous": false,
      "inputs": [
        {
          "indexed": true,
          "internalType": "uint256",
          "name": "originalId",
          "type": "uint256"
        },
        {
          "indexed": true,
          "internalType": "uint256",
          "name": "newId",
          "type": "uint256"
        },
        {
          "indexed": true,
          "internalType": "address",
          "name": "forker",
          "type": "address"
        }
      ],
      "name": "GameForked",
      "type": "event"
    },
    {
      "anonymous": false,
      "inputs": [
        {
          "indexed": true,
          "internalType": "uint256",
          "name": "tokenId",
          "type": "uint256"
        },
        {
          "indexed": true,
          "internalType": "address",
          "name": "creator",
          "type": "address"
        },
        {
          "indexed": false,
          "internalType": "string",
          "name": "gameTitle",
          "type": "string"
        }
      ],
      "name": "GameMinted",
      "type": "event"
    },
    {
      "anonymous": false,
      "inputs": [
        {
          "indexed": true,
          "internalType": "uint256",
          "name": "tokenId",
          "type": "uint256"
        },
        {
          "indexed": true,
          "internalType": "address",
          "name": "player",
          "type": "address"
        },
        {
          "indexed": false,
          "internalType": "uint256",
          "name": "reward",
          "type": "uint256"
        }
      ],
      "name": "GamePlayed",
      "type": "event"
    },
    {
      "anonymous": false,
      "inputs": [
        {
          "indexed": false,
          "internalType": "uint256",
          "name": "_tokenId",
          "type": "uint256"
        }
      ],
      "name": "MetadataUpdate",
      "type": "event"
    },
    {
      "anonymous": false,
      "inputs": [
        {
          "indexed": true,
          "internalType": "address",
          "name": "previousOwner",
          "type": "address"
        },
        {
          "indexed": true,
          "internalType": "address",
          "name": "newOwner",
          "type": "address"
        }
      ],
      "name": "OwnershipTransferred",
      "type": "event"
    },
    {
      "anonymous": false,
      "inputs": [
        {
          "indexed": true,
          "internalType": "uint256",
          "name": "tokenId",
          "type": "uint256"
        },
        {
          "indexed": false,
          "internalType": "uint256",
          "name": "totalReward",
          "type": "uint256"
        }
      ],
      "name": "RewardsDistributed",
      "type": "event"
    },
    {
      "anonymous": false,
      "inputs": [
        {
          "indexed": true,
          "internalType": "uint256",
          "name": "tokenId",
          "type": "uint256"
        },
        {
          "indexed": true,
          "internalType": "address",
          "name": "creator",
          "type": "address"
        },
        {
          "indexed": false,
          "internalType": "uint256",
          "name": "amount",
          "type": "uint256"
        }
      ],
      "name": "RoyaltyClaimed",
      "type": "event"
    },
    {
      "anonymous": false,
      "inputs": [
        {
          "indexed": true,
          "internalType": "uint256",
          "name": "tokenId",
          "type": "uint256"
        },
        {
          "indexed": true,
          "internalType": "address",
          "name": "staker",
          "type": "address"
        },
        {
          "indexed": false,
          "internalType": "uint256",
          "name": "amount",
          "type": "uint256"
        }
      ],
      "name": "TokensStaked",
      "type": "event"
    },
    {
      "anonymous": false,
      "inputs": [
        {
          "indexed": true,
          "internalType": "uint256",
          "name": "tokenId",
          "type": "uint256"
        },
        {
          "indexed": true,
          "internalType": "address",
          "name": "staker",
          "type": "address"
        },
        {
          "indexed": false,
          "internalType": "uint256",
          "name": "amount",
          "type": "uint256"
        }
      ],
      "name": "TokensUnstaked",
      "type": "event"
    },
    {
      "anonymous": false,
      "inputs": [
        {
          "indexed": true,
          "internalType": "address",
          "name": "from",
          "type": "address"
        },
        {
          "indexed": true,
          "internalType": "address",
          "name": "to",
          "type": "address"
        },
        {
          "indexed": true,
          "internalType": "uint256",
          "name": "tokenId",
          "type": "uint256"
        }
      ],
      "name": "Transfer",
      "type": "event"
    },
    {
      "inputs": [
        {
          "internalType": "address",
          "name": "to",
          "type": "address"
        },
        {
          "internalType": "uint256",
          "name": "tokenId",
          "type": "uint256"
        }
      ],
      "name": "approve",
      "outputs": [],
      "stateMutability": "nonpayable",
      "type": "function"
    },
    {
      "inputs": [
        {
          "internalType": "address",
          "name": "owner",
          "type": "address"
        }
      ],
      "name": "balanceOf",
      "outputs": [
        {
          "internalType": "uint256",
          "name": "",
          "type": "uint256"
        }
      ],
      "stateMutability": "view",
      "type": "function"
    },
    {
      "inputs": [
        {
          "internalType": "uint256",
          "name": "tokenId",
          "type": "uint256"
        }
      ],
      "name": "claimRoyalties",
      "outputs": [],
      "stateMutability": "nonpayable",
      "type": "function"
    },
    {
      "inputs": [],
      "name": "creatorRoyalty",
      "outputs": [
        {
          "internalType": "uint256",
          "name": "",
          "type": "uint256"
        }
      ],
      "stateMutability": "view",
      "type": "function"
    },
    {
      "inputs": [
        {
          "internalType": "uint256",
          "name": "originalTokenId",
          "type": "uint256"
        },
        {
          "internalType": "address",
          "name": "forker",
          "type": "address"
        },
        {
          "internalType": "string",
          "name": "newTitle",
          "type": "string"
        },
        {
          "internalType": "string",
          "name": "newDescription",
          "type": "string"
        },
        {
          "internalType": "string",
          "name": "_newTokenURI",
          "type": "string"
        },
        {
          "internalType": "string",
          "name": "newIpfsHash",
          "type": "string"
        }
      ],
      "name": "forkGame",
      "outputs": [
        {
          "internalType": "uint256",
          "name": "",
          "type": "uint256"
        }
      ],
      "stateMutability": "nonpayable",
      "type": "function"
    },
    {
      "inputs": [
        {
          "internalType": "uint256",
          "name": "",
          "type": "uint256"
        }
      ],
      "name": "gameScores",
      "outputs": [
        {
          "internalType": "uint256",
          "name": "",
          "type": "uint256"
        }
      ],
      "stateMutability": "view",
      "type": "function"
    },
    {
      "inputs": [
        {
          "internalType": "uint256",
          "name": "",
          "type": "uint256"
        }
      ],
      "name": "games",
      "outputs": [
        {
          "internalType": "address",
          "name": "creator",
          "type": "address"
        },
        {
          "internalType": "string",
          "name": "gameTitle",
          "type": "string"
        },
        {
          "internalType": "string",
          "name": "gameDescription",
          "type": "string"
        },
        {
          "internalType": "string",
          "name": "ipfsHash",
          "type": "string"
        },
        {
          "internalType": "uint256",
          "name": "createdAt",
          "type": "uint256"
        },
        {
          "internalType": "uint256",
          "name": "totalPlays",
          "type": "uint256"
        },
        {
          "internalType": "uint256",
          "name": "totalForks",
          "type": "uint256"
        },
        {
          "internalType": "uint256",
          "name": "totalStaked",
          "type": "uint256"
        },
        {
          "internalType": "bool",
          "name": "isActive",
          "type": "bool"
        }
      ],
      "stateMutability": "view",
      "type": "function"
    },
    {
      "inputs": [
        {
          "internalType": "uint256",
          "name": "tokenId",
          "type": "uint256"
        }
      ],
      "name": "getApproved",
      "outputs": [
        {
          "internalType": "address",
          "name": "",
          "type": "address"
        }
      ],
      "stateMutability": "view",
      "type": "function"
    },
    {
      "inputs": [
        {
          "internalType": "uint256",
          "name": "tokenId",
          "type": "uint256"
        }
      ],
      "name": "getGameDetails",
      "outputs": [
        {
          "components": [
            {
              "internalType": "address",
              "name": "creator",
              "type": "address"
            },
            {
              "internalType": "string",
              "name": "gameTitle",
              "type": "string"
            },
            {
              "internalType": "string",
              "name": "gameDescription",
              "type": "string"
            },
            {
              "internalType": "string",
              "name": "ipfsHash",
              "type": "string"
            },
            {
              "internalType": "uint256",
              "name": "createdAt",
              "type": "uint256"
            },
            {
              "internalType": "uint256",
              "name": "totalPlays",
              "type": "uint256"
            },
            {
              "internalType": "uint256",
              "name": "totalForks",
              "type": "uint256"
            },
            {
              "internalType": "uint256",
              "name": "totalStaked",
              "type": "uint256"
            },
            {
              "internalType": "bool",
              "name": "isActive",
              "type": "bool"
            }
          ],
          "internalType": "struct GameNFT.GameMetadata",
          "name": "gameData",
          "type": "tuple"
        },
        {
          "components": [
            {
              "internalType": "uint256",
              "name": "totalEarned",
              "type": "uint256"
            },
            {
              "internalType": "uint256",
              "name": "playEarnings",
              "type": "uint256"
            },
            {
              "internalType": "uint256",
              "name": "forkEarnings",
              "type": "uint256"
            },
            {
              "internalType": "uint256",
              "name": "stakingRewards",
              "type": "uint256"
            },
            {
              "internalType": "uint256",
              "name": "lastClaimed",
              "type": "uint256"
            }
          ],
          "internalType": "struct GameNFT.RoyaltyInfo",
          "name": "royaltyData",
          "type": "tuple"
        },
        {
          "internalType": "uint256",
          "name": "gameScore",
          "type": "uint256"
        }
      ],
      "stateMutability": "view",
      "type": "function"
    },
    {
      "inputs": [
        {
          "internalType": "uint256",
          "name": "tokenId",
          "type": "uint256"
        },
        {
          "internalType": "address",
          "name": "user",
          "type": "address"
        }
      ],
      "name": "getUserStakingInfo",
      "outputs": [
        {
          "internalType": "uint256",
          "name": "stakedAmount",
          "type": "uint256"
        },
        {
          "internalType": "uint256",
          "name": "pendingRewards",
          "type": "uint256"
        },
        {
          "internalType": "uint256",
          "name": "userShare",
          "type": "uint256"
        }
      ],
      "stateMutability": "view",
      "type": "function"
    },
    {
      "inputs": [
        {
          "internalType": "address",
          "name": "owner",
          "type": "address"
        },
        {
          "internalType": "address",
          "name": "operator",
          "type": "address"
        }
      ],
      "name": "isApprovedForAll",
      "outputs": [
        {
          "internalType": "bool",
          "name": "",
          "type": "bool"
        }
      ],
      "stateMutability": "view",
      "type": "function"
    },
    {
      "inputs": [
        {
          "internalType": "address",
          "name": "creator",
          "type": "address"
        },
        {
          "internalType": "string",
          "name": "gameTitle",
          "type": "string"
        },
        {
          "internalType": "string",
          "name": "gameDescription",
          "type": "string"
        },
        {
          "internalType": "string",
          "name": "_tokenURI",
          "type": "string"
        },
        {
          "internalType": "string",
          "name": "ipfsHash",
          "type": "string"
        }
      ],
      "name": "mintGame",
      "outputs": [
        {
          "internalType": "uint256",
          "name": "",
          "type": "uint256"
        }
      ],
      "stateMutability": "nonpayable",
      "type": "function"
    },
    {
      "inputs": [],
      "name": "name",
      "outputs": [
        {
          "internalType": "string",
          "name": "",
          "type": "string"
        }
      ],
      "stateMutability": "view",
      "type": "function"
    },
    {
      "inputs": [],
      "name": "owner",
      "outputs": [
        {
          "internalType": "address",
          "name": "",
          "type": "address"
        }
      ],
      "stateMutability": "view",
      "type": "function"
    },
    {
      "inputs": [
        {
          "internalType": "uint256",
          "name": "tokenId",
          "type": "uint256"
        }
      ],
      "name": "ownerOf",
      "outputs": [
        {
          "internalType": "address",
          "name": "",
          "type": "address"
        }
      ],
      "stateMutability": "view",
      "type": "function"
    },
    {
      "inputs": [],
      "name": "platformFee",
      "outputs": [
        {
          "internalType": "uint256",
          "name": "",
          "type": "uint256"
        }
      ],
      "stateMutability": "view",
      "type": "function"
    },
    {
      "inputs": [],
      "name": "platformToken",
      "outputs": [
        {
          "internalType": "contract IERC20",
          "name": "",
          "type": "address"
        }
      ],
      "stateMutability": "view",
      "type": "function"
    },
    {
      "inputs": [
        {
          "internalType": "uint256",
          "name": "tokenId",
          "type": "uint256"
        },
        {
          "internalType": "address",
          "name": "player",
          "type": "address"
        },
        {
          "internalType": "uint256",
          "name": "score",
          "type": "uint256"
        },
        {
          "internalType": "uint256",
          "name": "duration",
          "type": "uint256"
        }
      ],
      "name": "recordGamePlay",
      "outputs": [],
      "stateMutability": "nonpayable",
      "type": "function"
    },
    {
      "inputs": [],
      "name": "renounceOwnership",
      "outputs": [],
      "stateMutability": "nonpayable",
      "type": "function"
    },
    {
      "inputs": [
        {
          "internalType": "uint256",
          "name": "",
          "type": "uint256"
        }
      ],
      "name": "rewardPools",
      "outputs": [
        {
          "internalType": "uint256",
          "name": "",
          "type": "uint256"
        }
      ],
      "stateMutability": "view",
      "type": "function"
    },
    {
      "inputs": [
        {
          "internalType": "uint256",
          "name": "",
          "type": "uint256"
        }
      ],
      "name": "royalties",
      "outputs": [
        {
          "internalType": "uint256",
          "name": "totalEarned",
          "type": "uint256"
        },
        {
          "internalType": "uint256",
          "name": "playEarnings",
          "type": "uint256"
        },
        {
          "internalType": "uint256",
          "name": "forkEarnings",
          "type": "uint256"
        },
        {
          "internalType": "uint256",
          "name": "stakingRewards",
          "type": "uint256"
        },
        {
          "internalType": "uint256",
          "name": "lastClaimed",
          "type": "uint256"
        }
      ],
      "stateMutability": "view",
      "type": "function"
    },
    {
      "inputs": [
        {
          "internalType": "address",
          "name": "from",
          "type": "address"
        },
        {
          "internalType": "address",
          "name": "to",
          "type": "address"
        },
        {
          "internalType": "uint256",
          "name": "tokenId",
          "type": "uint256"
        }
      ],
      "name": "safeTransferFrom",
      "outputs": [],
      "stateMutability": "nonpayable",
      "type": "function"
    },
    {
      "inputs": [
        {
          "internalType": "address",
          "name": "from",
          "type": "address"
        },
        {
          "internalType": "address",
          "name": "to",
          "type": "address"
        },
        {
          "internalType": "uint256",
          "name": "tokenId",
          "type": "uint256"
        },
        {
          "internalType": "bytes",
          "name": "data",
          "type": "bytes"
        }
      ],
      "name": "safeTransferFrom",
      "outputs": [],
      "stateMutability": "nonpayable",
      "type": "function"
    },
    {
      "inputs": [
        {
          "internalType": "address",
          "name": "operator",
          "type": "address"
        },
        {
          "internalType": "bool",
          "name": "approved",
          "type": "bool"
        }
      ],
      "name": "setApprovalForAll",
      "outputs": [],
      "stateMutability": "nonpayable",
      "type": "function"
    },
    {
      "inputs": [
        {
          "internalType": "uint256",
          "name": "_creatorRoyalty",
          "type": "uint256"
        }
      ],
      "name": "setCreatorRoyalty",
      "outputs": [],
      "stateMutability": "nonpayable",
      "type": "function"
    },
    {
      "inputs": [
        {
          "internalType": "uint256",
          "name": "_platformFee",
          "type": "uint256"
        }
      ],
      "name": "setPlatformFee",
      "outputs": [],
      "stateMutability": "nonpayable",
      "type": "function"
    },
    {
      "inputs": [
        {
          "internalType": "uint256",
          "name": "tokenId",
          "type": "uint256"
        },
        {
          "internalType": "uint256",
          "name": "amount",
          "type": "uint256"
        }
      ],
      "name": "stakeOnGame",
      "outputs": [],
      "stateMutability": "nonpayable",
      "type": "function"
    },
    {
      "inputs": [
        {
          "internalType": "uint256",
          "name": "",
          "type": "uint256"
        },
        {
          "internalType": "address",
          "name": "",
          "type": "address"
        }
      ],
      "name": "stakes",
      "outputs": [
        {
          "internalType": "uint256",
          "name": "",
          "type": "uint256"
        }
      ],
      "stateMutability": "view",
      "type": "function"
    },
    {
      "inputs": [
        {
          "internalType": "bytes4",
          "name": "interfaceId",
          "type": "bytes4"
        }
      ],
      "name": "supportsInterface",
      "outputs": [
        {
          "internalType": "bool",
          "name": "",
          "type": "bool"
        }
      ],
      "stateMutability": "view",
      "type": "function"
    },
    {
      "inputs": [],
      "name": "symbol",
      "outputs": [
        {
          "internalType": "string",
          "name": "",
          "type": "string"
        }
      ],
      "stateMutability": "view",
      "type": "function"
    },
    {
      "inputs": [
        {
          "internalType": "uint256",
          "name": "tokenId",
          "type": "uint256"
        }
      ],
      "name": "toggleGameStatus",
      "outputs": [],
      "stateMutability": "nonpayable",
      "type": "function"
    },
    {
      "inputs": [
        {
          "internalType": "uint256",
          "name": "tokenId",
          "type": "uint256"
        }
      ],
      "name": "tokenURI",
      "outputs": [
        {
          "internalType": "string",
          "name": "",
          "type": "string"
        }
      ],
      "stateMutability": "view",
      "type": "function"
    },
    {
      "inputs": [
        {
          "internalType": "uint256",
          "name": "",
          "type": "uint256"
        }
      ],
      "name": "totalStaked",
      "outputs": [
        {
          "internalType": "uint256",
          "name": "",
          "type": "uint256"
        }
      ],
      "stateMutability": "view",
      "type": "function"
    },
    {
      "inputs": [
        {
          "internalType": "address",
          "name": "from",
          "type": "address"
        },
        {
          "internalType": "address",
          "name": "to",
          "type": "address"
        },
        {
          "internalType": "uint256",
          "name": "tokenId",
          "type": "uint256"
        }
      ],
      "name": "transferFrom",
      "outputs": [],
      "stateMutability": "nonpayable",
      "type": "function"
    },
    {
      "inputs": [
        {
          "internalType": "address",
          "name": "newOwner",
          "type": "address"
        }
      ],
      "name": "transferOwnership",
      "outputs": [],
      "stateMutability": "nonpayable",
      "type": "function"
    },
    {
      "inputs": [
        {
          "internalType": "uint256",
          "name": "tokenId",
          "type": "uint256"
        },
        {
          "internalType": "uint256",
          "name": "amount",
          "type": "uint256"
        }
      ],
      "name": "unstakeFromGame",
      "outputs": [],
      "stateMutability": "nonpayable",
      "type": "function"
    }
  ],
  "bytecode": "0x60a060405260fa600a556101f4600b553480156200001c57600080fd5b5060405162003477380380620034778339810160408190526200003f91620001cd565b3382826000620000508382620002e6565b5060016200005f8282620002e6565b5050506001600160a01b0381166200009157604051631e4fbdf760e01b81526000600482015260240160405180910390fd5b6200009c81620000b6565b50506001600855506001600160a01b0316608052620003b2565b600780546001600160a01b038381166001600160a01b0319831681179093556040519116919082907f8be0079c531659141344cd1fd0a4f28419497f9722a3daafe3b4186f6b6457e090600090a35050565b634e487b7160e01b600052604160045260246000fd5b600082601f8301126200013057600080fd5b81516001600160401b03808211156200014d576200014d62000108565b604051601f8301601f19908116603f0116810190828211818310171562000178576200017862000108565b816040528381526020925086838588010111156200019557600080fd5b600091505b83821015620001b957858201830151818301840152908201906200019a565b600093810190920192909252949350505050565b600080600060608486031215620001e357600080fd5b83516001600160a01b0381168114620001fb57600080fd5b60208501519093506001600160401b03808211156200021957600080fd5b62000227878388016200011e565b935060408601519150808211156200023e57600080fd5b506200024d868287016200011e565b9150509250925092565b600181811c908216806200026c57607f821691505b6020821081036200028d57634e487b7160e01b600052602260045260246000fd5b50919050565b601f821115620002e157600081815260208120601f850160051c81016020861015620002bc5750805b601f850160051c820191505b81811015620002dd57828155600101620002c8565b5050505b505050565b81516001600160401b0381111562000302576200030262000108565b6200031a8162000313845462000257565b8462000293565b602080601f831160018114620003525760008415620003395750858301515b600019600386901b1c1916600185901b178555620002dd565b600085815260208120601f198616915b82811015620003835788860151825594840194600190910190840162000362565b5085821015620003a25787850151600019600388901b60f8161c191681555b5050505050600190811b01905550565b608051613086620003f160003960008181610569015281816110420152818161116f0152818161138b015281816116fc0152611ac501526130866000f3fe608060405234801561001057600080fd5b506004361061021c5760003560e01c806370a0823111610125578063a22cb465116100ad578063c87b56dd1161007c578063c87b56dd14610551578063d1b812cd14610564578063dcd49b141461058b578063e985e9c51461059e578063f2fde38b146105b157600080fd5b8063a22cb465146104ed578063a9a3bba414610500578063b653861b1461052b578063b88d4fde1461053e57600080fd5b806386ad310f116100f457806386ad310f1461049b57806388806bbc146104ae5780638da5cb5b146104c157806395d89b41146104d25780639d8e4782146104da57600080fd5b806370a0823114610412578063711b1cfa14610425578063715018a61461042e5780637f77f5741461043657600080fd5b806323b872dd116101a857806342842e0e1161017757806342842e0e1461039957806343d50524146103ac57806346abf391146103bf5780636352211e146103df5780636a30b21b146103f257600080fd5b806323b872dd1461034a57806326232a2e1461035d5780633f2112171461036657806341cb8c201461037957600080fd5b8063117a5b90116101ef578063117a5b901461029e578063128644b0146102c657806312e8e2c3146102f45780631b31abda146103075780631bb669421461032957600080fd5b806301ffc9a71461022157806306fdde0314610249578063081812fc1461025e578063095ea7b314610289575b600080fd5b61023461022f366004612787565b6105c4565b60405190151581526020015b60405180910390f35b6102516105d5565b60405161024091906127f4565b61027161026c366004612807565b610667565b6040516001600160a01b039091168152602001610240565b61029c61029736600461283c565b610690565b005b6102b16102ac366004612807565b61069f565b60405161024099989796959493929190612866565b6102d96102d43660046128e3565b61088c565b60408051938452602084019290925290820152606001610240565b61029c610302366004612807565b610906565b61031a610315366004612807565b610962565b6040516102409392919061290f565b61033c610337366004612ab9565b610c7b565b604051908152602001610240565b61029c610358366004612b7f565b610ecb565b61033c600a5481565b61029c610374366004612807565b610f56565b61033c610387366004612807565b600f6020526000908152604090205481565b61029c6103a7366004612b7f565b610f81565b61029c6103ba366004612bbb565b610fa1565b61033c6103cd366004612807565b60106020526000908152604090205481565b6102716103ed366004612807565b611227565b61033c610400366004612807565b60116020526000908152604090205481565b61033c610420366004612bdd565b611232565b61033c600b5481565b61029c61127a565b610473610444366004612807565b600d60205260009081526040902080546001820154600283015460038401546004909401549293919290919085565b604080519586526020860194909452928401919091526060830152608082015260a001610240565b61029c6104a9366004612807565b61128e565b61033c6104bc366004612bf8565b611446565b6007546001600160a01b0316610271565b6102516115c3565b61029c6104e8366004612bbb565b6115d2565b61029c6104fb366004612cc4565b61182a565b61033c61050e3660046128e3565b600e60209081526000928352604080842090915290825290205481565b61029c610539366004612807565b611835565b61029c61054c366004612cfb565b611894565b61025161055f366004612807565b6118ac565b6102717f000000000000000000000000000000000000000000000000000000000000000081565b61029c610599366004612d77565b6118b7565b6102346105ac366004612db2565b611b94565b61029c6105bf366004612bdd565b611bc2565b60006105cf82611bfd565b92915050565b6060600080546105e490612ddc565b80601f016020809104026020016040519081016040528092919081815260200182805461061090612ddc565b801561065d5780601f106106325761010080835404028352916020019161065d565b820191906000526020600020905b81548152906001019060200180831161064057829003601f168201915b5050505050905090565b600061067282611c22565b506000828152600460205260409020546001600160a01b03166105cf565b61069b828233611c5b565b5050565b600c60205260009081526040902080546001820180546001600160a01b0390921692916106cb90612ddc565b80601f01602080910402602001604051908101604052809291908181526020018280546106f790612ddc565b80156107445780601f1061071957610100808354040283529160200191610744565b820191906000526020600020905b81548152906001019060200180831161072757829003601f168201915b50505050509080600201805461075990612ddc565b80601f016020809104026020016040519081016040528092919081815260200182805461078590612ddc565b80156107d25780601f106107a7576101008083540402835291602001916107d2565b820191906000526020600020905b8154815290600101906020018083116107b557829003601f168201915b5050505050908060030180546107e790612ddc565b80601f016020809104026020016040519081016040528092919081815260200182805461081390612ddc565b80156108605780601f1061083557610100808354040283529160200191610860565b820191906000526020600020905b81548152906001019060200180831161084357829003601f168201915b505050600484015460058501546006860154600787015460089097015495969295919450925060ff1689565b6000828152600e602090815260408083206001600160a01b038516845290915281205490806108bb8585611c68565b6000868152600f60205260409020549092506108d85760006108fd565b6000858152600f60205260409020546108f384612710612e2c565b6108fd9190612e43565b90509250925092565b61090e611d00565b6103e881111561095d5760405162461bcd60e51b81526020600482015260156024820152740a0d8c2e8ccdee4da40cccaca40e8dede40d0d2ced605b1b60448201526064015b60405180910390fd5b600a55565b6109bc60405180610120016040528060006001600160a01b03168152602001606081526020016060815260200160608152602001600081526020016000815260200160008152602001600081526020016000151581525090565b6109ee6040518060a0016040528060008152602001600081526020016000815260200160008152602001600081525090565b6000838152600c60209081526040808320600d835281842060118452828520548351610120810190945282546001600160a01b03168452600183018054939592949193919286929084019190610a4390612ddc565b80601f0160208091040260200160405190810160405280929190818152602001828054610a6f90612ddc565b8015610abc5780601f10610a9157610100808354040283529160200191610abc565b820191906000526020600020905b815481529060010190602001808311610a9f57829003601f168201915b50505050508152602001600282018054610ad590612ddc565b80601f0160208091040260200160405190810160405280929190818152602001828054610b0190612ddc565b8015610b4e5780601f10610b2357610100808354040283529160200191610b4e565b820191906000526020600020905b815481529060010190602001808311610b3157829003601f168201915b50505050508152602001600382018054610b6790612ddc565b80601f0160208091040260200160405190810160405280929190818152602001828054610b9390612ddc565b8015610be05780601f10610bb557610100808354040283529160200191610be0565b820191906000526020600020905b815481529060010190602001808311610bc357829003601f168201915b50505050508152602001600482015481526020016005820154815260200160068201548152602001600782015481526020016008820160009054906101000a900460ff1615151515815250509250816040518060a00160405290816000820154815260200160018201548152602001600282015481526020016003820154815260200160048201548152505091509250925092509193909250565b6000610c85611d00565b6000878152600260205260409020546001600160a01b0316610ce95760405162461bcd60e51b815260206004820152601c60248201527f4f726967696e616c2067616d6520646f6573206e6f74206578697374000000006044820152606401610954565b60098054906000610cf983612e65565b9091555050600954610d0b8782611d2d565b610d158185611d92565b60408051610120810182526001600160a01b03898116825260208083018a81528385018a905260608401889052426080850152600060a0850181905260c0850181905260e0850181905260016101008601819052878252600c90935294909420835181546001600160a01b031916931692909217825592519192909190820190610d9f9082612ec4565b5060408201516002820190610db49082612ec4565b5060608201516003820190610dc99082612ec4565b506080820151600482015560a0820151600582015560c082015160068083019190915560e08301516007830155610100909201516008909101805460ff19169115159190911790556000898152600c60205260408120909101805491610e2e83612e65565b90915550506000888152600d602052604081206002018054683635c9adc5dea0000092839291610e5f908490612f84565b90915550506000898152600d602052604081208054839290610e82908490612f84565b90915550506040516001600160a01b0389169083908b907f9871c48b39f0947ee158478af43f96301d3e453e8764ed33f2e7e09c9760d39a90600090a450979650505050505050565b6001600160a01b038216610ef557604051633250574960e11b815260006004820152602401610954565b6000610f02838333611de2565b9050836001600160a01b0316816001600160a01b031614610f50576040516364283d7b60e01b81526001600160a01b0380861660048301526024820184905282166044820152606401610954565b50505050565b610f5e611d00565b6000908152600c60205260409020600801805460ff19811660ff90911615179055565b610f9c83838360405180602001604052806000815250611894565b505050565b610fa9611edb565b6000828152600e602090815260408083203384529091529020548111156110125760405162461bcd60e51b815260206004820152601a60248201527f496e73756666696369656e74207374616b656420616d6f756e740000000000006044820152606401610954565b600061101e8333611c68565b905080156110dc5760405163a9059cbb60e01b8152336004820152602481018290527f00000000000000000000000000000000000000000000000000000000000000006001600160a01b03169063a9059cbb906044016020604051808303816000875af1158015611093573d6000803e3d6000fd5b505050506040513d601f19601f820116820180604052508101906110b79190612f97565b50600083815260106020526040812080548392906110d6908490612fb4565b90915550505b6000838152600e6020908152604080832033845290915281208054849290611105908490612fb4565b90915550506000838152600f602052604081208054849290611128908490612fb4565b90915550506000838152600c60205260408120600701805484929061114e908490612fb4565b909155505060405163a9059cbb60e01b8152336004820152602481018390527f00000000000000000000000000000000000000000000000000000000000000006001600160a01b03169063a9059cbb906044016020604051808303816000875af11580156111c0573d6000803e3d6000fd5b505050506040513d601f19601f820116820180604052508101906111e49190612f97565b50604051828152339084907f9a1f9df9e373ad68e6c69ba19bf9a14ca2a529ea5deec1b2255df386506b6c479060200160405180910390a35061069b6001600855565b60006105cf82611c22565b60006001600160a01b03821661125e576040516322718ad960e21b815260006004820152602401610954565b506001600160a01b031660009081526003602052604090205490565b611282611d00565b61128c6000611f05565b565b611296611edb565b336112a082611227565b6001600160a01b0316146112f65760405162461bcd60e51b815260206004820152601960248201527f4f6e6c792067616d65206f776e65722063616e20636c61696d000000000000006044820152606401610954565b6000818152600d60205260408120600481015481549192916113189190612fb4565b9050600081116113625760405162461bcd60e51b81526020600482015260156024820152744e6f20726f79616c7469657320746f20636c61696d60581b6044820152606401610954565b815460048084019190915560405163a9059cbb60e01b81523391810191909152602481018290527f00000000000000000000000000000000000000000000000000000000000000006001600160a01b03169063a9059cbb906044016020604051808303816000875af11580156113dc573d6000803e3d6000fd5b505050506040513d601f19601f820116820180604052508101906114009190612f97565b50604051818152339084907e5ff6321fbc462bad97d71220393208f0286cd4482b70c04f592526a75656d39060200160405180910390a350506114436001600855565b50565b6000611450611d00565b6009805490600061146083612e65565b90915550506009546114728782611d2d565b61147c8185611d92565b60408051610120810182526001600160a01b03898116825260208083018a81528385018a905260608401889052426080850152600060a0850181905260c0850181905260e0850181905260016101008601819052878252600c90935294909420835181546001600160a01b0319169316929092178255925191929091908201906115069082612ec4565b506040820151600282019061151b9082612ec4565b50606082015160038201906115309082612ec4565b506080820151600482015560a0820151600582015560c0820151600682015560e08201516007820155610100909101516008909101805460ff19169115159190911790556040516001600160a01b0388169082907f9429a37ddeac6f98175163853219d09ae00734bc8bb4f794857855628b640787906115b1908a906127f4565b60405180910390a39695505050505050565b6060600180546105e490612ddc565b6115da611edb565b6000828152600260205260409020546001600160a01b03166116345760405162461bcd60e51b815260206004820152601360248201527211d85b5948191bd95cc81b9bdd08195e1a5cdd606a1b6044820152606401610954565b6000828152600c602052604090206008015460ff1661168a5760405162461bcd60e51b815260206004820152601260248201527147616d65206973206e6f742061637469766560701b6044820152606401610954565b600081116116da5760405162461bcd60e51b815260206004820152601d60248201527f416d6f756e74206d7573742062652067726561746572207468616e20300000006044820152606401610954565b6040516323b872dd60e01b8152336004820152306024820152604481018290527f00000000000000000000000000000000000000000000000000000000000000006001600160a01b0316906323b872dd906064016020604051808303816000875af115801561174d573d6000803e3d6000fd5b505050506040513d601f19601f820116820180604052508101906117719190612f97565b506000828152600e602090815260408083203384529091528120805483929061179b908490612f84565b90915550506000828152600f6020526040812080548392906117be908490612f84565b90915550506000828152600c6020526040812060070180548392906117e4908490612f84565b9091555050604051818152339083907f3c2905e5cda90fbc3e1296ec4bc49130e39b6203bb1d13b4a855ced4d920e16f9060200160405180910390a361069b6001600855565b61069b338383611f57565b61183d611d00565b6103e881111561188f5760405162461bcd60e51b815260206004820152601860248201527f43726561746f7220726f79616c747920746f6f206869676800000000000000006044820152606401610954565b600b55565b61189f848484610ecb565b610f503385858585611ff6565b60606105cf82612121565b6118bf611d00565b6118c7611edb565b6000848152600260205260409020546001600160a01b03166119215760405162461bcd60e51b815260206004820152601360248201527211d85b5948191bd95cc81b9bdd08195e1a5cdd606a1b6044820152606401610954565b6000848152600c602052604090206008015460ff166119775760405162461bcd60e51b815260206004820152601260248201527147616d65206973206e6f742061637469766560701b6044820152606401610954565b6000848152600c60205260408120600581018054919261199683612e65565b919050555060006119a8868585612232565b90508015611b7e576000612710600b54836119c39190612e2c565b6119cd9190612e43565b905080600d600089815260200190815260200160002060010160008282546119f59190612f84565b90915550506000878152600d602052604081208054839290611a18908490612f84565b9091555050600a5460009061271090611a319085612e2c565b611a3b9190612e43565b9050600081611a4a8486612fb4565b611a549190612fb4565b60008a8152600f602052604090205490915015611a8f5760008981526010602052604081208054839290611a89908490612f84565b90915550505b6000611a9c600486612e43565b60405163a9059cbb60e01b81526001600160a01b038b81166004830152602482018390529192507f00000000000000000000000000000000000000000000000000000000000000009091169063a9059cbb906044016020604051808303816000875af1158015611b10573d6000803e3d6000fd5b505050506040513d601f19601f82011682018060405250810190611b349190612f97565b50886001600160a01b03168a7f5ec3545abc9e56c3d29262ac2dc66e1f210bb7ab3ee3b9e6d9b0a05a1be9765c83604051611b7191815260200190565b60405180910390a3505050505b611b8886856122e6565b5050610f506001600855565b6001600160a01b03918216600090815260056020908152604080832093909416825291909152205460ff1690565b611bca611d00565b6001600160a01b038116611bf457604051631e4fbdf760e01b815260006004820152602401610954565b61144381611f05565b60006001600160e01b03198216632483248360e11b14806105cf57506105cf82612374565b6000818152600260205260408120546001600160a01b0316806105cf57604051637e27328960e01b815260048101849052602401610954565b610f9c83838360016123c4565b6000828152600f60205260408120548103611c85575060006105cf565b6000838152600e602090815260408083206001600160a01b0386168452825280832054868452600f909252822054909190611cc283612710612e2c565b611ccc9190612e43565b60008681526010602052604090205490915061271090611ced908390612e2c565b611cf79190612e43565b95945050505050565b6007546001600160a01b0316331461128c5760405163118cdaa760e01b8152336004820152602401610954565b6001600160a01b038216611d5757604051633250574960e11b815260006004820152602401610954565b6000611d6583836000611de2565b90506001600160a01b03811615610f9c576040516339e3563760e11b815260006004820152602401610954565b6000828152600660205260409020611daa8282612ec4565b506040518281527ff8e1a15aba9398e019f0b49df1a4fde98ee17ae345cb5f6b5e2c27f5033e8ce79060200160405180910390a15050565b6000828152600260205260408120546001600160a01b0390811690831615611e0f57611e0f8184866124ca565b6001600160a01b03811615611e4d57611e2c6000856000806123c4565b6001600160a01b038116600090815260036020526040902080546000190190555b6001600160a01b03851615611e7c576001600160a01b0385166000908152600360205260409020805460010190555b60008481526002602052604080822080546001600160a01b0319166001600160a01b0389811691821790925591518793918516917fddf252ad1be2c89b69c2b068fc378daa952ba7f163c4a11628f55a4df523b3ef91a4949350505050565b600260085403611efe57604051633ee5aeb560e01b815260040160405180910390fd5b6002600855565b600780546001600160a01b038381166001600160a01b0319831681179093556040519116919082907f8be0079c531659141344cd1fd0a4f28419497f9722a3daafe3b4186f6b6457e090600090a35050565b6001600160a01b038216611f8957604051630b61174360e31b81526001600160a01b0383166004820152602401610954565b6001600160a01b03838116600081815260056020908152604080832094871680845294825291829020805460ff191686151590811790915591519182527f17307eab39ab6107e8899845ad3d59bd9653f200f220920489ca2b5937696c31910160405180910390a3505050565b6001600160a01b0383163b1561211a57604051630a85bd0160e11b81526001600160a01b0384169063150b7a0290612038908890889087908790600401612fc7565b6020604051808303816000875af1925050508015612073575060408051601f3d908101601f1916820190925261207091810190613004565b60015b6120dc573d8080156120a1576040519150601f19603f3d011682016040523d82523d6000602084013e6120a6565b606091505b5080516000036120d457604051633250574960e11b81526001600160a01b0385166004820152602401610954565b805160208201fd5b6001600160e01b03198116630a85bd0160e11b1461211857604051633250574960e11b81526001600160a01b0385166004820152602401610954565b505b5050505050565b606061212c82611c22565b506000828152600660205260408120805461214690612ddc565b80601f016020809104026020016040519081016040528092919081815260200182805461217290612ddc565b80156121bf5780601f10612194576101008083540402835291602001916121bf565b820191906000526020600020905b8154815290600101906020018083116121a257829003601f168201915b5050505050905060006121dd60408051602081019091526000815290565b905080516000036121ef575092915050565b815115612221578082604051602001612209929190613021565b60405160208183030381529060405292505050919050565b61222a8461252e565b949350505050565b6000678ac7230489e80000816103e861224c866064612e2c565b6122569190612e43565b9050600061012c851161226a57606461226d565b60965b60ff16905060006064600c60008a8152602001908152602001600020600501541161229957606461229c565b60785b60ff169050620f424081836122b2866064612f84565b6122bc9088612e2c565b6122c69190612e2c565b6122d09190612e2c565b6122da9190612e43565b98975050505050505050565b6000828152600c60205260408120600581015490919061230790600a612e2c565b905060008260060154603261231c9190612e2c565b90506000670de0b6b3a764000084600701546123389190612e43565b905084816123468486612f84565b6123509190612f84565b61235a9190612f84565b600096875260116020526040909620959095555050505050565b60006001600160e01b031982166380ac58cd60e01b14806123a557506001600160e01b03198216635b5e139f60e01b145b806105cf57506301ffc9a760e01b6001600160e01b03198316146105cf565b80806123d857506001600160a01b03821615155b1561249a5760006123e884611c22565b90506001600160a01b038316158015906124145750826001600160a01b0316816001600160a01b031614155b801561242757506124258184611b94565b155b156124505760405163a9fbf51f60e01b81526001600160a01b0384166004820152602401610954565b81156124985783856001600160a01b0316826001600160a01b03167f8c5be1e5ebec7d5bd14f71427d1e84f3dd0314c0f7b2291e5b200ac8c7c3b92560405160405180910390a45b505b5050600090815260046020526040902080546001600160a01b0319166001600160a01b0392909216919091179055565b6124d58383836125a3565b610f9c576001600160a01b03831661250357604051637e27328960e01b815260048101829052602401610954565b60405163177e802f60e01b81526001600160a01b038316600482015260248101829052604401610954565b606061253982611c22565b50600061255160408051602081019091526000815290565b90506000815111612571576040518060200160405280600081525061259c565b8061257b84612606565b60405160200161258c929190613021565b6040516020818303038152906040525b9392505050565b60006001600160a01b0383161580159061222a5750826001600160a01b0316846001600160a01b031614806125dd57506125dd8484611b94565b8061222a5750506000908152600460205260409020546001600160a01b03908116911614919050565b6060600061261383612699565b600101905060008167ffffffffffffffff81111561263357612633612a0d565b6040519080825280601f01601f19166020018201604052801561265d576020820181803683370190505b5090508181016020015b600019016f181899199a1a9b1b9c1cb0b131b232b360811b600a86061a8153600a850494508461266757509392505050565b60008072184f03e93ff9f4daa797ed6e38ed64bf6a1f0160401b83106126d85772184f03e93ff9f4daa797ed6e38ed64bf6a1f0160401b830492506040015b6d04ee2d6d415b85acef81000000008310612704576d04ee2d6d415b85acef8100000000830492506020015b662386f26fc10000831061272257662386f26fc10000830492506010015b6305f5e100831061273a576305f5e100830492506008015b612710831061274e57612710830492506004015b60648310612760576064830492506002015b600a83106105cf5760010192915050565b6001600160e01b03198116811461144357600080fd5b60006020828403121561279957600080fd5b813561259c81612771565b60005b838110156127bf5781810151838201526020016127a7565b50506000910152565b600081518084526127e08160208601602086016127a4565b601f01601f19169290920160200192915050565b60208152600061259c60208301846127c8565b60006020828403121561281957600080fd5b5035919050565b80356001600160a01b038116811461283757600080fd5b919050565b6000806040838503121561284f57600080fd5b61285883612820565b946020939093013593505050565b6001600160a01b038a1681526101206020820181905260009061288b8382018c6127c8565b9050828103604084015261289f818b6127c8565b905082810360608401526128b3818a6127c8565b6080840198909852505060a081019490945260c084019290925260e0830152151561010090910152949350505050565b600080604083850312156128f657600080fd5b8235915061290660208401612820565b90509250929050565b60e0815261292960e0820185516001600160a01b03169052565b6000602085015161012061010081818601526129496102008601846127c8565b9250604088015160df1980878603018488015261296685836127c8565b945060608a015193508087860301610140880152505061298683836127c8565b608089015161016087015260a089015161018087015260c08901516101a087015260e08901516101c0870152908801518015156101e087015290925090505090506129ff602083018580518252602081015160208301526040810151604083015260608101516060830152608081015160808301525050565b8260c0830152949350505050565b634e487b7160e01b600052604160045260246000fd5b600067ffffffffffffffff80841115612a3e57612a3e612a0d565b604051601f8501601f19908116603f01168101908282118183101715612a6657612a66612a0d565b81604052809350858152868686011115612a7f57600080fd5b858560208301376000602087830101525050509392505050565b600082601f830112612aaa57600080fd5b61259c83833560208501612a23565b60008060008060008060c08789031215612ad257600080fd5b86359550612ae260208801612820565b9450604087013567ffffffffffffffff80821115612aff57600080fd5b612b0b8a838b01612a99565b95506060890135915080821115612b2157600080fd5b612b2d8a838b01612a99565b94506080890135915080821115612b4357600080fd5b612b4f8a838b01612a99565b935060a0890135915080821115612b6557600080fd5b50612b7289828a01612a99565b9150509295509295509295565b600080600060608486031215612b9457600080fd5b612b9d84612820565b9250612bab60208501612820565b9150604084013590509250925092565b60008060408385031215612bce57600080fd5b50508035926020909101359150565b600060208284031215612bef57600080fd5b61259c82612820565b600080600080600060a08688031215612c1057600080fd5b612c1986612820565b9450602086013567ffffffffffffffff80821115612c3657600080fd5b612c4289838a01612a99565b95506040880135915080821115612c5857600080fd5b612c6489838a01612a99565b94506060880135915080821115612c7a57600080fd5b612c8689838a01612a99565b93506080880135915080821115612c9c57600080fd5b50612ca988828901612a99565b9150509295509295909350565b801515811461144357600080fd5b60008060408385031215612cd757600080fd5b612ce083612820565b91506020830135612cf081612cb6565b809150509250929050565b60008060008060808587031215612d1157600080fd5b612d1a85612820565b9350612d2860208601612820565b925060408501359150606085013567ffffffffffffffff811115612d4b57600080fd5b8501601f81018713612d5c57600080fd5b612d6b87823560208401612a23565b91505092959194509250565b60008060008060808587031215612d8d57600080fd5b84359350612d9d60208601612820565b93969395505050506040820135916060013590565b60008060408385031215612dc557600080fd5b612dce83612820565b915061290660208401612820565b600181811c90821680612df057607f821691505b602082108103612e1057634e487b7160e01b600052602260045260246000fd5b50919050565b634e487b7160e01b600052601160045260246000fd5b80820281158282048414176105cf576105cf612e16565b600082612e6057634e487b7160e01b600052601260045260246000fd5b500490565b600060018201612e7757612e77612e16565b5060010190565b601f821115610f9c57600081815260208120601f850160051c81016020861015612ea55750805b601f850160051c820191505b8181101561211857828155600101612eb1565b815167ffffffffffffffff811115612ede57612ede612a0d565b612ef281612eec8454612ddc565b84612e7e565b602080601f831160018114612f275760008415612f0f5750858301515b600019600386901b1c1916600185901b178555612118565b600085815260208120601f198616915b82811015612f5657888601518255948401946001909101908401612f37565b5085821015612f745787850151600019600388901b60f8161c191681555b5050505050600190811b01905550565b808201808211156105cf576105cf612e16565b600060208284031215612fa957600080fd5b815161259c81612cb6565b818103818111156105cf576105cf612e16565b6001600160a01b0385811682528416602082015260408101839052608060608201819052600090612ffa908301846127c8565b9695505050505050565b60006020828403121561301657600080fd5b815161259c81612771565b600083516130338184602088016127a4565b8351908301906130478183602088016127a4565b0194935050505056fea2646970667358221220f3fc9c5641490d6daddd6111dbe314b95cc2b4f7c066758478a9e68f20d016fe64736f6c63430008140033",
  "linkReferences": {},
  "deployedLinkReferences": {}
}